{
  "_format": "hh-sol-artifact-1",
  "contractName": "UserFundDeposit",
  "sourceName": "contracts/userFundDeposit.sol",
  "abi": [
    {
      "anonymous": false,
      "inputs": [
        {
          "indexed": false,
          "internalType": "address",
          "name": "_from",
          "type": "address"
        },
        {
          "indexed": false,
          "internalType": "address",
          "name": "_to",
          "type": "address"
        },
        {
          "indexed": true,
          "internalType": "uint256",
          "name": "_amount",
          "type": "uint256"
        }
      ],
      "name": "EtherTransfered",
      "type": "event"
    },
    {
      "anonymous": false,
      "inputs": [
        {
          "indexed": true,
          "internalType": "address",
          "name": "previousOwner",
          "type": "address"
        },
        {
          "indexed": true,
          "internalType": "address",
          "name": "newOwner",
          "type": "address"
        }
      ],
      "name": "OwnershipTransferred",
      "type": "event"
    },
    {
      "anonymous": false,
      "inputs": [
        {
          "indexed": false,
          "internalType": "address",
          "name": "_token",
          "type": "address"
        },
        {
          "indexed": false,
          "internalType": "address",
          "name": "_from",
          "type": "address"
        },
        {
          "indexed": false,
          "internalType": "address",
          "name": "_to",
          "type": "address"
        },
        {
          "indexed": true,
          "internalType": "uint256",
          "name": "_amount",
          "type": "uint256"
        }
      ],
      "name": "TokenTransfered",
      "type": "event"
    },
    {
      "inputs": [
        {
          "internalType": "uint256",
          "name": "custId",
          "type": "uint256"
        },
        {
          "internalType": "uint256",
          "name": "roles",
          "type": "uint256"
        },
        {
          "internalType": "bytes32",
          "name": "hash",
          "type": "bytes32"
        },
        {
          "internalType": "bytes",
          "name": "signature",
          "type": "bytes"
        }
      ],
      "name": "depositEtherFund",
      "outputs": [],
      "stateMutability": "payable",
      "type": "function"
    },
    {
      "inputs": [
        {
          "internalType": "address",
          "name": "tokenAddress",
          "type": "address"
        },
        {
          "internalType": "uint256",
          "name": "custId",
          "type": "uint256"
        },
        {
          "internalType": "uint256",
          "name": "roles",
          "type": "uint256"
        },
        {
          "internalType": "uint256",
          "name": "amount",
          "type": "uint256"
        },
        {
          "internalType": "bytes32",
          "name": "hash",
          "type": "bytes32"
        },
        {
          "internalType": "bytes",
          "name": "signature",
          "type": "bytes"
        }
      ],
      "name": "depositTokenFund",
      "outputs": [],
      "stateMutability": "nonpayable",
      "type": "function"
    },
    {
      "inputs": [
        {
          "internalType": "address",
          "name": "tokenAddress",
          "type": "address"
        },
        {
          "internalType": "address",
          "name": "recipient",
          "type": "address"
        }
      ],
      "name": "getTokenBalance",
      "outputs": [
        {
          "internalType": "uint256",
          "name": "",
          "type": "uint256"
        }
      ],
      "stateMutability": "view",
      "type": "function"
    },
    {
      "inputs": [],
      "name": "owner",
      "outputs": [
        {
          "internalType": "address",
          "name": "",
          "type": "address"
        }
      ],
      "stateMutability": "view",
      "type": "function"
    },
    {
      "inputs": [],
      "name": "renounceOwnership",
      "outputs": [],
      "stateMutability": "nonpayable",
      "type": "function"
    },
    {
      "inputs": [
        {
          "internalType": "address",
          "name": "newOwner",
          "type": "address"
        }
      ],
      "name": "transferOwnership",
      "outputs": [],
      "stateMutability": "nonpayable",
      "type": "function"
    }
  ],
  "bytecode": "0x6080604052600a600255601460035534801561001a57600080fd5b5061003761002c61004360201b60201c565b61004b60201b60201c565b6001808190555061010f565b600033905090565b60008060009054906101000a900473ffffffffffffffffffffffffffffffffffffffff169050816000806101000a81548173ffffffffffffffffffffffffffffffffffffffff021916908373ffffffffffffffffffffffffffffffffffffffff1602179055508173ffffffffffffffffffffffffffffffffffffffff168173ffffffffffffffffffffffffffffffffffffffff167f8be0079c531659141344cd1fd0a4f28419497f9722a3daafe3b4186f6b6457e060405160405180910390a35050565b6122fb806200011f6000396000f3fe6080604052600436106100555760003560e01c8063715018a61461005a5780638da5cb5b14610071578063c489744b1461009c578063c78a0078146100d9578063dc524c5b14610102578063f2fde38b1461011e575b600080fd5b34801561006657600080fd5b5061006f610147565b005b34801561007d57600080fd5b5061008661015b565b6040516100939190611924565b60405180910390f35b3480156100a857600080fd5b506100c360048036038101906100be91906113df565b610184565b6040516100d09190611c86565b60405180910390f35b3480156100e557600080fd5b5061010060048036038101906100fb919061141f565b6102fc565b005b61011c60048036038101906101179190611522565b61074e565b005b34801561012a57600080fd5b50610145600480360381019061014091906113b2565b610a8b565b005b61014f610b0f565b6101596000610b8d565b565b60008060009054906101000a900473ffffffffffffffffffffffffffffffffffffffff16905090565b60008073ffffffffffffffffffffffffffffffffffffffff168373ffffffffffffffffffffffffffffffffffffffff1614156101f5576040517f08c379a00000000000000000000000000000000000000000000000000000000081526004016101ec90611b66565b60405180910390fd5b600073ffffffffffffffffffffffffffffffffffffffff168273ffffffffffffffffffffffffffffffffffffffff161415610265576040517f08c379a000000000000000000000000000000000000000000000000000000000815260040161025c90611b66565b60405180910390fd5b60008390508073ffffffffffffffffffffffffffffffffffffffff166370a08231846040518263ffffffff1660e01b81526004016102a39190611924565b60206040518083038186803b1580156102bb57600080fd5b505afa1580156102cf573d6000803e3d6000fd5b505050506040513d601f19601f820116820180604052508101906102f391906114f5565b91505092915050565b600a84148061030b5750601484145b61034a576040517f08c379a000000000000000000000000000000000000000000000000000000000815260040161034190611ae6565b60405180910390fd5b600083141561038e576040517f08c379a000000000000000000000000000000000000000000000000000000000815260040161038590611be6565b60405180910390fd5b600073ffffffffffffffffffffffffffffffffffffffff168673ffffffffffffffffffffffffffffffffffffffff1614156103fe576040517f08c379a00000000000000000000000000000000000000000000000000000000081526004016103f590611b66565b60405180910390fd5b61040661015b565b73ffffffffffffffffffffffffffffffffffffffff166104268383610c51565b73ffffffffffffffffffffffffffffffffffffffff161461047c576040517f08c379a000000000000000000000000000000000000000000000000000000000815260040161047390611b06565b60405180910390fd5b60058160405161048c91906118e7565b908152602001604051809103902060009054906101000a900460ff16156104e8576040517f08c379a00000000000000000000000000000000000000000000000000000000081526004016104df90611c26565b60405180910390fd5b6000600460008781526020019081526020016000206000015414610541576040517f08c379a000000000000000000000000000000000000000000000000000000000815260040161053890611a86565b60405180910390fd5b6000851415610585576040517f08c379a000000000000000000000000000000000000000000000000000000000815260040161057c90611bc6565b60405180910390fd5b6000869050838173ffffffffffffffffffffffffffffffffffffffff1663dd62ed3e33306040518363ffffffff1660e01b81526004016105c692919061193f565b60206040518083038186803b1580156105de57600080fd5b505afa1580156105f2573d6000803e3d6000fd5b505050506040513d601f19601f8201168201806040525081019061061691906114f5565b1015610657576040517f08c379a000000000000000000000000000000000000000000000000000000000815260040161064e90611b86565b60405180910390fd5b6040518060200160405280878152506004600088815260200190815260200160002060008201518160000155905050600160058360405161069891906118e7565b908152602001604051809103902060006101000a81548160ff021916908315150217905550837fa7814aaf178d6c8e61b2703f3dc1b8328dd6c99cbb405bf8f1bb0cb1bbb051a5883360008054906101000a900473ffffffffffffffffffffffffffffffffffffffff1660405161071193929190611991565b60405180910390a2610745813360008054906101000a900473ffffffffffffffffffffffffffffffffffffffff1687610c90565b50505050505050565b610756610d19565b600a8314806107655750601483145b6107a4576040517f08c379a000000000000000000000000000000000000000000000000000000000815260040161079b90611ae6565b60405180910390fd5b60003414156107e8576040517f08c379a00000000000000000000000000000000000000000000000000000000081526004016107df90611be6565b60405180910390fd5b6107f061015b565b73ffffffffffffffffffffffffffffffffffffffff166108108383610c51565b73ffffffffffffffffffffffffffffffffffffffff1614610866576040517f08c379a000000000000000000000000000000000000000000000000000000000815260040161085d90611b06565b60405180910390fd5b60058160405161087691906118e7565b908152602001604051809103902060009054906101000a900460ff16156108d2576040517f08c379a00000000000000000000000000000000000000000000000000000000081526004016108c990611c26565b60405180910390fd5b600060046000868152602001908152602001600020600001541461092b576040517f08c379a000000000000000000000000000000000000000000000000000000000815260040161092290611a86565b60405180910390fd5b600084141561096f576040517f08c379a000000000000000000000000000000000000000000000000000000000815260040161096690611bc6565b60405180910390fd5b60008060009054906101000a900473ffffffffffffffffffffffffffffffffffffffff1690506040518060200160405280868152506004600087815260200190815260200160002060008201518160000155905050347f8062a128e9e0dd636284e6105d2de7173e2ac59a098f5be5c3a9cf2c9142e79633836040516109f6929190611968565b60405180910390a28073ffffffffffffffffffffffffffffffffffffffff166108fc349081150290604051600060405180830381858888f19350505050158015610a44573d6000803e3d6000fd5b506001600583604051610a5791906118e7565b908152602001604051809103902060006101000a81548160ff02191690831515021790555050610a85610d69565b50505050565b610a93610b0f565b600073ffffffffffffffffffffffffffffffffffffffff168173ffffffffffffffffffffffffffffffffffffffff161415610b03576040517f08c379a0000000000000000000000000000000000000000000000000000000008152600401610afa90611ac6565b60405180910390fd5b610b0c81610b8d565b50565b610b17610d72565b73ffffffffffffffffffffffffffffffffffffffff16610b3561015b565b73ffffffffffffffffffffffffffffffffffffffff1614610b8b576040517f08c379a0000000000000000000000000000000000000000000000000000000008152600401610b8290611ba6565b60405180910390fd5b565b60008060009054906101000a900473ffffffffffffffffffffffffffffffffffffffff169050816000806101000a81548173ffffffffffffffffffffffffffffffffffffffff021916908373ffffffffffffffffffffffffffffffffffffffff1602179055508173ffffffffffffffffffffffffffffffffffffffff168173ffffffffffffffffffffffffffffffffffffffff167f8be0079c531659141344cd1fd0a4f28419497f9722a3daafe3b4186f6b6457e060405160405180910390a35050565b60008083604051602001610c6591906118fe565b604051602081830303815290604052805190602001209050610c878184610d7a565b91505092915050565b610d13846323b872dd60e01b858585604051602401610cb1939291906119c8565b604051602081830303815290604052907bffffffffffffffffffffffffffffffffffffffffffffffffffffffff19166020820180517bffffffffffffffffffffffffffffffffffffffffffffffffffffffff8381831617835250505050610da1565b50505050565b60026001541415610d5f576040517f08c379a0000000000000000000000000000000000000000000000000000000008152600401610d5690611c66565b60405180910390fd5b6002600181905550565b60018081905550565b600033905090565b6000806000610d898585610e68565b91509150610d9681610eba565b819250505092915050565b6000610e03826040518060400160405280602081526020017f5361666545524332303a206c6f772d6c6576656c2063616c6c206661696c65648152508573ffffffffffffffffffffffffffffffffffffffff166110289092919063ffffffff16565b9050600081511115610e635780806020019051810190610e2391906114c8565b610e62576040517f08c379a0000000000000000000000000000000000000000000000000000000008152600401610e5990611c46565b60405180910390fd5b5b505050565b600080604183511415610eaa5760008060006020860151925060408601519150606086015160001a9050610e9e87828585611040565b94509450505050610eb3565b60006002915091505b9250929050565b60006004811115610ece57610ecd611e46565b5b816004811115610ee157610ee0611e46565b5b1415610eec57611025565b60016004811115610f0057610eff611e46565b5b816004811115610f1357610f12611e46565b5b1415610f54576040517f08c379a0000000000000000000000000000000000000000000000000000000008152600401610f4b90611a66565b60405180910390fd5b60026004811115610f6857610f67611e46565b5b816004811115610f7b57610f7a611e46565b5b1415610fbc576040517f08c379a0000000000000000000000000000000000000000000000000000000008152600401610fb390611aa6565b60405180910390fd5b60036004811115610fd057610fcf611e46565b5b816004811115610fe357610fe2611e46565b5b1415611024576040517f08c379a000000000000000000000000000000000000000000000000000000000815260040161101b90611b26565b60405180910390fd5b5b50565b60606110378484600085611123565b90509392505050565b6000807f7fffffffffffffffffffffffffffffff5d576e7357a4501ddfe92f46681b20a08360001c111561107b57600060039150915061111a565b6000600187878787604051600081526020016040526040516110a094939291906119ff565b6020604051602081039080840390855afa1580156110c2573d6000803e3d6000fd5b505050602060405103519050600073ffffffffffffffffffffffffffffffffffffffff168173ffffffffffffffffffffffffffffffffffffffff1614156111115760006001925092505061111a565b80600092509250505b94509492505050565b606082471015611168576040517f08c379a000000000000000000000000000000000000000000000000000000000815260040161115f90611b46565b60405180910390fd5b6000808673ffffffffffffffffffffffffffffffffffffffff16858760405161119191906118e7565b60006040518083038185875af1925050503d80600081146111ce576040519150601f19603f3d011682016040523d82523d6000602084013e6111d3565b606091505b50915091506111e4878383876111f0565b92505050949350505050565b606083156112535760008351141561124b5761120b85611266565b61124a576040517f08c379a000000000000000000000000000000000000000000000000000000000815260040161124190611c06565b60405180910390fd5b5b82905061125e565b61125d8383611289565b5b949350505050565b6000808273ffffffffffffffffffffffffffffffffffffffff163b119050919050565b60008251111561129c5781518083602001fd5b806040517f08c379a00000000000000000000000000000000000000000000000000000000081526004016112d09190611a44565b60405180910390fd5b60006112ec6112e784611cc6565b611ca1565b90508281526020810184848401111561130857611307611ea9565b5b611313848285611dc9565b509392505050565b60008135905061132a81612269565b92915050565b60008151905061133f81612280565b92915050565b60008135905061135481612297565b92915050565b600082601f83011261136f5761136e611ea4565b5b813561137f8482602086016112d9565b91505092915050565b600081359050611397816122ae565b92915050565b6000815190506113ac816122ae565b92915050565b6000602082840312156113c8576113c7611eb3565b5b60006113d68482850161131b565b91505092915050565b600080604083850312156113f6576113f5611eb3565b5b60006114048582860161131b565b92505060206114158582860161131b565b9150509250929050565b60008060008060008060c0878903121561143c5761143b611eb3565b5b600061144a89828a0161131b565b965050602061145b89828a01611388565b955050604061146c89828a01611388565b945050606061147d89828a01611388565b935050608061148e89828a01611345565b92505060a087013567ffffffffffffffff8111156114af576114ae611eae565b5b6114bb89828a0161135a565b9150509295509295509295565b6000602082840312156114de576114dd611eb3565b5b60006114ec84828501611330565b91505092915050565b60006020828403121561150b5761150a611eb3565b5b60006115198482850161139d565b91505092915050565b6000806000806080858703121561153c5761153b611eb3565b5b600061154a87828801611388565b945050602061155b87828801611388565b935050604061156c87828801611345565b925050606085013567ffffffffffffffff81111561158d5761158c611eae565b5b6115998782880161135a565b91505092959194509250565b6115ae81611d93565b82525050565b6115bd81611d34565b82525050565b6115cc81611d52565b82525050565b6115e36115de82611d52565b611e3c565b82525050565b60006115f482611cf7565b6115fe8185611d0d565b935061160e818560208601611dd8565b80840191505092915050565b600061162582611d02565b61162f8185611d18565b935061163f818560208601611dd8565b61164881611eb8565b840191505092915050565b6000611660601883611d18565b915061166b82611ec9565b602082019050919050565b6000611683602583611d18565b915061168e82611ef2565b604082019050919050565b60006116a6601f83611d18565b91506116b182611f41565b602082019050919050565b60006116c9601c83611d29565b91506116d482611f6a565b601c82019050919050565b60006116ec602683611d18565b91506116f782611f93565b604082019050919050565b600061170f600d83611d18565b915061171a82611fe2565b602082019050919050565b6000611732601983611d18565b915061173d8261200b565b602082019050919050565b6000611755602283611d18565b915061176082612034565b604082019050919050565b6000611778602683611d18565b915061178382612083565b604082019050919050565b600061179b601683611d18565b91506117a6826120d2565b602082019050919050565b60006117be601983611d18565b91506117c9826120fb565b602082019050919050565b60006117e1602083611d18565b91506117ec82612124565b602082019050919050565b6000611804601683611d18565b915061180f8261214d565b602082019050919050565b6000611827601383611d18565b915061183282612176565b602082019050919050565b600061184a601d83611d18565b91506118558261219f565b602082019050919050565b600061186d601683611d18565b9150611878826121c8565b602082019050919050565b6000611890602a83611d18565b915061189b826121f1565b604082019050919050565b60006118b3601f83611d18565b91506118be82612240565b602082019050919050565b6118d281611d7c565b82525050565b6118e181611d86565b82525050565b60006118f382846115e9565b915081905092915050565b6000611909826116bc565b915061191582846115d2565b60208201915081905092915050565b600060208201905061193960008301846115b4565b92915050565b600060408201905061195460008301856115b4565b61196160208301846115b4565b9392505050565b600060408201905061197d60008301856115b4565b61198a60208301846115a5565b9392505050565b60006060820190506119a660008301866115b4565b6119b360208301856115b4565b6119c060408301846115b4565b949350505050565b60006060820190506119dd60008301866115b4565b6119ea60208301856115b4565b6119f760408301846118c9565b949350505050565b6000608082019050611a1460008301876115c3565b611a2160208301866118d8565b611a2e60408301856115c3565b611a3b60608301846115c3565b95945050505050565b60006020820190508181036000830152611a5e818461161a565b905092915050565b60006020820190508181036000830152611a7f81611653565b9050919050565b60006020820190508181036000830152611a9f81611676565b9050919050565b60006020820190508181036000830152611abf81611699565b9050919050565b60006020820190508181036000830152611adf816116df565b9050919050565b60006020820190508181036000830152611aff81611702565b9050919050565b60006020820190508181036000830152611b1f81611725565b9050919050565b60006020820190508181036000830152611b3f81611748565b9050919050565b60006020820190508181036000830152611b5f8161176b565b9050919050565b60006020820190508181036000830152611b7f8161178e565b9050919050565b60006020820190508181036000830152611b9f816117b1565b9050919050565b60006020820190508181036000830152611bbf816117d4565b9050919050565b60006020820190508181036000830152611bdf816117f7565b9050919050565b60006020820190508181036000830152611bff8161181a565b9050919050565b60006020820190508181036000830152611c1f8161183d565b9050919050565b60006020820190508181036000830152611c3f81611860565b9050919050565b60006020820190508181036000830152611c5f81611883565b9050919050565b60006020820190508181036000830152611c7f816118a6565b9050919050565b6000602082019050611c9b60008301846118c9565b92915050565b6000611cab611cbc565b9050611cb78282611e0b565b919050565b6000604051905090565b600067ffffffffffffffff821115611ce157611ce0611e75565b5b611cea82611eb8565b9050602081019050919050565b600081519050919050565b600081519050919050565b600081905092915050565b600082825260208201905092915050565b600081905092915050565b6000611d3f82611d5c565b9050919050565b60008115159050919050565b6000819050919050565b600073ffffffffffffffffffffffffffffffffffffffff82169050919050565b6000819050919050565b600060ff82169050919050565b6000611d9e82611da5565b9050919050565b6000611db082611db7565b9050919050565b6000611dc282611d5c565b9050919050565b82818337600083830152505050565b60005b83811015611df6578082015181840152602081019050611ddb565b83811115611e05576000848401525b50505050565b611e1482611eb8565b810181811067ffffffffffffffff82111715611e3357611e32611e75565b5b80604052505050565b6000819050919050565b7f4e487b7100000000000000000000000000000000000000000000000000000000600052602160045260246000fd5b7f4e487b7100000000000000000000000000000000000000000000000000000000600052604160045260246000fd5b600080fd5b600080fd5b600080fd5b600080fd5b6000601f19601f8301169050919050565b7f45434453413a20696e76616c6964207369676e61747572650000000000000000600082015250565b7f437573746f6d657220776974682073616d6520696420616c726561647920657860008201527f697374732e000000000000000000000000000000000000000000000000000000602082015250565b7f45434453413a20696e76616c6964207369676e6174757265206c656e67746800600082015250565b7f19457468657265756d205369676e6564204d6573736167653a0a333200000000600082015250565b7f4f776e61626c653a206e6577206f776e657220697320746865207a65726f206160008201527f6464726573730000000000000000000000000000000000000000000000000000602082015250565b7f496e76616c696420726f6c657300000000000000000000000000000000000000600082015250565b7f41646472657373206973206e6f7420617574686f72697a656400000000000000600082015250565b7f45434453413a20696e76616c6964207369676e6174757265202773272076616c60008201527f7565000000000000000000000000000000000000000000000000000000000000602082015250565b7f416464726573733a20696e73756666696369656e742062616c616e636520666f60008201527f722063616c6c0000000000000000000000000000000000000000000000000000602082015250565b7f416464726573732063616e6e6f74206265207a65726f00000000000000000000600082015250565b7f436865636b2074686520746f6b656e20616c6c6f77616e636500000000000000600082015250565b7f4f776e61626c653a2063616c6c6572206973206e6f7420746865206f776e6572600082015250565b7f437573746f6d657249642063616e6e6f74206265203000000000000000000000600082015250565b7f496e73756666696369656e7420616d6f756e7400000000000000000000000000600082015250565b7f416464726573733a2063616c6c20746f206e6f6e2d636f6e7472616374000000600082015250565b7f416c7265616479207369676e6174757265207573656400000000000000000000600082015250565b7f5361666545524332303a204552433230206f7065726174696f6e20646964206e60008201527f6f74207375636365656400000000000000000000000000000000000000000000602082015250565b7f5265656e7472616e637947756172643a207265656e7472616e742063616c6c00600082015250565b61227281611d34565b811461227d57600080fd5b50565b61228981611d46565b811461229457600080fd5b50565b6122a081611d52565b81146122ab57600080fd5b50565b6122b781611d7c565b81146122c257600080fd5b5056fea2646970667358221220751d4947b57717b5987cbfbb2c0fd6f16f47bd86f324974fd25aa98aaa0a5fb164736f6c63430008070033",
  "linkReferences": {},
  "deployedLinkReferences": {}
}