{
  "_format": "hh-sol-artifact-1",
  "contractName": "UserFundDeposit",
  "sourceName": "contracts/userFundDeposit.sol",
  "abi": [
    {
      "anonymous": false,
      "inputs": [
        {
          "indexed": false,
          "internalType": "address",
          "name": "_from",
          "type": "address"
        },
        {
          "indexed": false,
          "internalType": "address",
          "name": "_to",
          "type": "address"
        },
        {
          "indexed": true,
          "internalType": "uint256",
          "name": "_amount",
          "type": "uint256"
        }
      ],
      "name": "EtherTransfered",
      "type": "event"
    },
    {
      "anonymous": false,
      "inputs": [
        {
          "indexed": true,
          "internalType": "address",
          "name": "previousOwner",
          "type": "address"
        },
        {
          "indexed": true,
          "internalType": "address",
          "name": "newOwner",
          "type": "address"
        }
      ],
      "name": "OwnershipTransferred",
      "type": "event"
    },
    {
      "anonymous": false,
      "inputs": [
        {
          "indexed": false,
          "internalType": "address",
          "name": "_token",
          "type": "address"
        },
        {
          "indexed": false,
          "internalType": "address",
          "name": "_from",
          "type": "address"
        },
        {
          "indexed": false,
          "internalType": "address",
          "name": "_to",
          "type": "address"
        },
        {
          "indexed": true,
          "internalType": "uint256",
          "name": "_amount",
          "type": "uint256"
        }
      ],
      "name": "TokenTransfered",
      "type": "event"
    },
    {
      "inputs": [
        {
          "internalType": "string",
          "name": "custId",
          "type": "string"
        },
        {
          "internalType": "uint256",
          "name": "roles",
          "type": "uint256"
        },
        {
          "internalType": "bytes32",
          "name": "hash",
          "type": "bytes32"
        },
        {
          "internalType": "bytes",
          "name": "signature",
          "type": "bytes"
        }
      ],
      "name": "depositEtherFund",
      "outputs": [],
      "stateMutability": "payable",
      "type": "function"
    },
    {
      "inputs": [
        {
          "internalType": "address",
          "name": "tokenAddress",
          "type": "address"
        },
        {
          "internalType": "string",
          "name": "custId",
          "type": "string"
        },
        {
          "internalType": "uint256",
          "name": "roles",
          "type": "uint256"
        },
        {
          "internalType": "uint256",
          "name": "amount",
          "type": "uint256"
        },
        {
          "internalType": "bytes32",
          "name": "hash",
          "type": "bytes32"
        },
        {
          "internalType": "bytes",
          "name": "signature",
          "type": "bytes"
        }
      ],
      "name": "depositTokenFund",
      "outputs": [],
      "stateMutability": "nonpayable",
      "type": "function"
    },
    {
      "inputs": [
        {
          "internalType": "address",
          "name": "tokenAddress",
          "type": "address"
        },
        {
          "internalType": "address",
          "name": "recipient",
          "type": "address"
        }
      ],
      "name": "getTokenBalance",
      "outputs": [
        {
          "internalType": "uint256",
          "name": "",
          "type": "uint256"
        }
      ],
      "stateMutability": "view",
      "type": "function"
    },
    {
      "inputs": [],
      "name": "owner",
      "outputs": [
        {
          "internalType": "address",
          "name": "",
          "type": "address"
        }
      ],
      "stateMutability": "view",
      "type": "function"
    },
    {
      "inputs": [],
      "name": "renounceOwnership",
      "outputs": [],
      "stateMutability": "nonpayable",
      "type": "function"
    },
    {
      "inputs": [
        {
          "internalType": "address",
          "name": "newOwner",
          "type": "address"
        }
      ],
      "name": "transferOwnership",
      "outputs": [],
      "stateMutability": "nonpayable",
      "type": "function"
    }
  ],
  "bytecode": "0x6080604052600a600255601460035534801561001a57600080fd5b5061003761002c61004360201b60201c565b61004b60201b60201c565b6001808190555061010f565b600033905090565b60008060009054906101000a900473ffffffffffffffffffffffffffffffffffffffff169050816000806101000a81548173ffffffffffffffffffffffffffffffffffffffff021916908373ffffffffffffffffffffffffffffffffffffffff1602179055508173ffffffffffffffffffffffffffffffffffffffff168173ffffffffffffffffffffffffffffffffffffffff167f8be0079c531659141344cd1fd0a4f28419497f9722a3daafe3b4186f6b6457e060405160405180910390a35050565b612232806200011f6000396000f3fe6080604052600436106100555760003560e01c8063715018a61461005a57806385505f9b146100715780638da5cb5b1461008d578063975b2cde146100b8578063c489744b146100e1578063f2fde38b1461011e575b600080fd5b34801561006657600080fd5b5061006f610147565b005b61008b60048036038101906100869190611471565b61015b565b005b34801561009957600080fd5b506100a2610410565b6040516100af9190611899565b60405180910390f35b3480156100c457600080fd5b506100df60048036038101906100da919061137f565b610439565b005b3480156100ed57600080fd5b506101086004803603810190610103919061133f565b610803565b6040516101159190611bdb565b60405180910390f35b34801561012a57600080fd5b5061014560048036038101906101409190611312565b61097b565b005b61014f6109ff565b6101596000610a7d565b565b610163610b41565b600a8314806101725750601483145b6101b1576040517f08c379a00000000000000000000000000000000000000000000000000000000081526004016101a890611a3b565b60405180910390fd5b60003414156101f5576040517f08c379a00000000000000000000000000000000000000000000000000000000081526004016101ec90611b3b565b60405180910390fd5b6000845111610239576040517f08c379a000000000000000000000000000000000000000000000000000000000815260040161023090611a7b565b60405180910390fd5b610241610410565b73ffffffffffffffffffffffffffffffffffffffff166102618383610b91565b73ffffffffffffffffffffffffffffffffffffffff16146102b7576040517f08c379a00000000000000000000000000000000000000000000000000000000081526004016102ae90611a5b565b60405180910390fd5b6004816040516102c7919061185c565b908152602001604051809103902060009054906101000a900460ff1615610323576040517f08c379a000000000000000000000000000000000000000000000000000000000815260040161031a90611b7b565b60405180910390fd5b60008060009054906101000a900473ffffffffffffffffffffffffffffffffffffffff169050347f8062a128e9e0dd636284e6105d2de7173e2ac59a098f5be5c3a9cf2c9142e796338360405161037b9291906118dd565b60405180910390a28073ffffffffffffffffffffffffffffffffffffffff166108fc349081150290604051600060405180830381858888f193505050501580156103c9573d6000803e3d6000fd5b5060016004836040516103dc919061185c565b908152602001604051809103902060006101000a81548160ff0219169083151502179055505061040a610bd0565b50505050565b60008060009054906101000a900473ffffffffffffffffffffffffffffffffffffffff16905090565b600a8414806104485750601484145b610487576040517f08c379a000000000000000000000000000000000000000000000000000000000815260040161047e90611a3b565b60405180910390fd5b60008314156104cb576040517f08c379a00000000000000000000000000000000000000000000000000000000081526004016104c290611b3b565b60405180910390fd5b600073ffffffffffffffffffffffffffffffffffffffff168673ffffffffffffffffffffffffffffffffffffffff16141561053b576040517f08c379a000000000000000000000000000000000000000000000000000000000815260040161053290611adb565b60405180910390fd5b600085511161057f576040517f08c379a000000000000000000000000000000000000000000000000000000000815260040161057690611a7b565b60405180910390fd5b610587610410565b73ffffffffffffffffffffffffffffffffffffffff166105a78383610b91565b73ffffffffffffffffffffffffffffffffffffffff16146105fd576040517f08c379a00000000000000000000000000000000000000000000000000000000081526004016105f490611a5b565b60405180910390fd5b60048160405161060d919061185c565b908152602001604051809103902060009054906101000a900460ff1615610669576040517f08c379a000000000000000000000000000000000000000000000000000000000815260040161066090611b7b565b60405180910390fd5b6000869050838173ffffffffffffffffffffffffffffffffffffffff1663dd62ed3e33306040518363ffffffff1660e01b81526004016106aa9291906118b4565b60206040518083038186803b1580156106c257600080fd5b505afa1580156106d6573d6000803e3d6000fd5b505050506040513d601f19601f820116820180604052508101906106fa9190611510565b101561073b576040517f08c379a000000000000000000000000000000000000000000000000000000000815260040161073290611afb565b60405180910390fd5b600160048360405161074d919061185c565b908152602001604051809103902060006101000a81548160ff021916908315150217905550837fa7814aaf178d6c8e61b2703f3dc1b8328dd6c99cbb405bf8f1bb0cb1bbb051a5883360008054906101000a900473ffffffffffffffffffffffffffffffffffffffff166040516107c693929190611906565b60405180910390a26107fa813360008054906101000a900473ffffffffffffffffffffffffffffffffffffffff1687610bd9565b50505050505050565b60008073ffffffffffffffffffffffffffffffffffffffff168373ffffffffffffffffffffffffffffffffffffffff161415610874576040517f08c379a000000000000000000000000000000000000000000000000000000000815260040161086b90611adb565b60405180910390fd5b600073ffffffffffffffffffffffffffffffffffffffff168273ffffffffffffffffffffffffffffffffffffffff1614156108e4576040517f08c379a00000000000000000000000000000000000000000000000000000000081526004016108db90611adb565b60405180910390fd5b60008390508073ffffffffffffffffffffffffffffffffffffffff166370a08231846040518263ffffffff1660e01b81526004016109229190611899565b60206040518083038186803b15801561093a57600080fd5b505afa15801561094e573d6000803e3d6000fd5b505050506040513d601f19601f820116820180604052508101906109729190611510565b91505092915050565b6109836109ff565b600073ffffffffffffffffffffffffffffffffffffffff168173ffffffffffffffffffffffffffffffffffffffff1614156109f3576040517f08c379a00000000000000000000000000000000000000000000000000000000081526004016109ea90611a1b565b60405180910390fd5b6109fc81610a7d565b50565b610a07610c62565b73ffffffffffffffffffffffffffffffffffffffff16610a25610410565b73ffffffffffffffffffffffffffffffffffffffff1614610a7b576040517f08c379a0000000000000000000000000000000000000000000000000000000008152600401610a7290611b1b565b60405180910390fd5b565b60008060009054906101000a900473ffffffffffffffffffffffffffffffffffffffff169050816000806101000a81548173ffffffffffffffffffffffffffffffffffffffff021916908373ffffffffffffffffffffffffffffffffffffffff1602179055508173ffffffffffffffffffffffffffffffffffffffff168173ffffffffffffffffffffffffffffffffffffffff167f8be0079c531659141344cd1fd0a4f28419497f9722a3daafe3b4186f6b6457e060405160405180910390a35050565b60026001541415610b87576040517f08c379a0000000000000000000000000000000000000000000000000000000008152600401610b7e90611bbb565b60405180910390fd5b6002600181905550565b60008083604051602001610ba59190611873565b604051602081830303815290604052805190602001209050610bc78184610c6a565b91505092915050565b60018081905550565b610c5c846323b872dd60e01b858585604051602401610bfa9392919061193d565b604051602081830303815290604052907bffffffffffffffffffffffffffffffffffffffffffffffffffffffff19166020820180517bffffffffffffffffffffffffffffffffffffffffffffffffffffffff8381831617835250505050610c91565b50505050565b600033905090565b6000806000610c798585610d58565b91509150610c8681610daa565b819250505092915050565b6000610cf3826040518060400160405280602081526020017f5361666545524332303a206c6f772d6c6576656c2063616c6c206661696c65648152508573ffffffffffffffffffffffffffffffffffffffff16610f189092919063ffffffff16565b9050600081511115610d535780806020019051810190610d139190611444565b610d52576040517f08c379a0000000000000000000000000000000000000000000000000000000008152600401610d4990611b9b565b60405180910390fd5b5b505050565b600080604183511415610d9a5760008060006020860151925060408601519150606086015160001a9050610d8e87828585610f30565b94509450505050610da3565b60006002915091505b9250929050565b60006004811115610dbe57610dbd611dcc565b5b816004811115610dd157610dd0611dcc565b5b1415610ddc57610f15565b60016004811115610df057610def611dcc565b5b816004811115610e0357610e02611dcc565b5b1415610e44576040517f08c379a0000000000000000000000000000000000000000000000000000000008152600401610e3b906119db565b60405180910390fd5b60026004811115610e5857610e57611dcc565b5b816004811115610e6b57610e6a611dcc565b5b1415610eac576040517f08c379a0000000000000000000000000000000000000000000000000000000008152600401610ea3906119fb565b60405180910390fd5b60036004811115610ec057610ebf611dcc565b5b816004811115610ed357610ed2611dcc565b5b1415610f14576040517f08c379a0000000000000000000000000000000000000000000000000000000008152600401610f0b90611a9b565b60405180910390fd5b5b50565b6060610f278484600085611013565b90509392505050565b6000807f7fffffffffffffffffffffffffffffff5d576e7357a4501ddfe92f46681b20a08360001c1115610f6b57600060039150915061100a565b600060018787878760405160008152602001604052604051610f909493929190611974565b6020604051602081039080840390855afa158015610fb2573d6000803e3d6000fd5b505050602060405103519050600073ffffffffffffffffffffffffffffffffffffffff168173ffffffffffffffffffffffffffffffffffffffff1614156110015760006001925092505061100a565b80600092509250505b94509492505050565b606082471015611058576040517f08c379a000000000000000000000000000000000000000000000000000000000815260040161104f90611abb565b60405180910390fd5b6000808673ffffffffffffffffffffffffffffffffffffffff168587604051611081919061185c565b60006040518083038185875af1925050503d80600081146110be576040519150601f19603f3d011682016040523d82523d6000602084013e6110c3565b606091505b50915091506110d4878383876110e0565b92505050949350505050565b606083156111435760008351141561113b576110fb85611156565b61113a576040517f08c379a000000000000000000000000000000000000000000000000000000000815260040161113190611b5b565b60405180910390fd5b5b82905061114e565b61114d8383611179565b5b949350505050565b6000808273ffffffffffffffffffffffffffffffffffffffff163b119050919050565b60008251111561118c5781518083602001fd5b806040517f08c379a00000000000000000000000000000000000000000000000000000000081526004016111c091906119b9565b60405180910390fd5b60006111dc6111d784611c1b565b611bf6565b9050828152602081018484840111156111f8576111f7611e2f565b5b611203848285611d4f565b509392505050565b600061121e61121984611c4c565b611bf6565b90508281526020810184848401111561123a57611239611e2f565b5b611245848285611d4f565b509392505050565b60008135905061125c816121a0565b92915050565b600081519050611271816121b7565b92915050565b600081359050611286816121ce565b92915050565b600082601f8301126112a1576112a0611e2a565b5b81356112b18482602086016111c9565b91505092915050565b600082601f8301126112cf576112ce611e2a565b5b81356112df84826020860161120b565b91505092915050565b6000813590506112f7816121e5565b92915050565b60008151905061130c816121e5565b92915050565b60006020828403121561132857611327611e39565b5b60006113368482850161124d565b91505092915050565b6000806040838503121561135657611355611e39565b5b60006113648582860161124d565b92505060206113758582860161124d565b9150509250929050565b60008060008060008060c0878903121561139c5761139b611e39565b5b60006113aa89828a0161124d565b965050602087013567ffffffffffffffff8111156113cb576113ca611e34565b5b6113d789828a016112ba565b95505060406113e889828a016112e8565b94505060606113f989828a016112e8565b935050608061140a89828a01611277565b92505060a087013567ffffffffffffffff81111561142b5761142a611e34565b5b61143789828a0161128c565b9150509295509295509295565b60006020828403121561145a57611459611e39565b5b600061146884828501611262565b91505092915050565b6000806000806080858703121561148b5761148a611e39565b5b600085013567ffffffffffffffff8111156114a9576114a8611e34565b5b6114b5878288016112ba565b94505060206114c6878288016112e8565b93505060406114d787828801611277565b925050606085013567ffffffffffffffff8111156114f8576114f7611e34565b5b6115048782880161128c565b91505092959194509250565b60006020828403121561152657611525611e39565b5b6000611534848285016112fd565b91505092915050565b61154681611d19565b82525050565b61155581611cba565b82525050565b61156481611cd8565b82525050565b61157b61157682611cd8565b611dc2565b82525050565b600061158c82611c7d565b6115968185611c93565b93506115a6818560208601611d5e565b80840191505092915050565b60006115bd82611c88565b6115c78185611c9e565b93506115d7818560208601611d5e565b6115e081611e3e565b840191505092915050565b60006115f8601883611c9e565b915061160382611e4f565b602082019050919050565b600061161b601f83611c9e565b915061162682611e78565b602082019050919050565b600061163e601c83611caf565b915061164982611ea1565b601c82019050919050565b6000611661602683611c9e565b915061166c82611eca565b604082019050919050565b6000611684600d83611c9e565b915061168f82611f19565b602082019050919050565b60006116a7601983611c9e565b91506116b282611f42565b602082019050919050565b60006116ca600e83611c9e565b91506116d582611f6b565b602082019050919050565b60006116ed602283611c9e565b91506116f882611f94565b604082019050919050565b6000611710602683611c9e565b915061171b82611fe3565b604082019050919050565b6000611733601683611c9e565b915061173e82612032565b602082019050919050565b6000611756601983611c9e565b91506117618261205b565b602082019050919050565b6000611779602083611c9e565b915061178482612084565b602082019050919050565b600061179c601383611c9e565b91506117a7826120ad565b602082019050919050565b60006117bf601d83611c9e565b91506117ca826120d6565b602082019050919050565b60006117e2601683611c9e565b91506117ed826120ff565b602082019050919050565b6000611805602a83611c9e565b915061181082612128565b604082019050919050565b6000611828601f83611c9e565b915061183382612177565b602082019050919050565b61184781611d02565b82525050565b61185681611d0c565b82525050565b60006118688284611581565b915081905092915050565b600061187e82611631565b915061188a828461156a565b60208201915081905092915050565b60006020820190506118ae600083018461154c565b92915050565b60006040820190506118c9600083018561154c565b6118d6602083018461154c565b9392505050565b60006040820190506118f2600083018561154c565b6118ff602083018461153d565b9392505050565b600060608201905061191b600083018661154c565b611928602083018561154c565b611935604083018461154c565b949350505050565b6000606082019050611952600083018661154c565b61195f602083018561154c565b61196c604083018461183e565b949350505050565b6000608082019050611989600083018761155b565b611996602083018661184d565b6119a3604083018561155b565b6119b0606083018461155b565b95945050505050565b600060208201905081810360008301526119d381846115b2565b905092915050565b600060208201905081810360008301526119f4816115eb565b9050919050565b60006020820190508181036000830152611a148161160e565b9050919050565b60006020820190508181036000830152611a3481611654565b9050919050565b60006020820190508181036000830152611a5481611677565b9050919050565b60006020820190508181036000830152611a748161169a565b9050919050565b60006020820190508181036000830152611a94816116bd565b9050919050565b60006020820190508181036000830152611ab4816116e0565b9050919050565b60006020820190508181036000830152611ad481611703565b9050919050565b60006020820190508181036000830152611af481611726565b9050919050565b60006020820190508181036000830152611b1481611749565b9050919050565b60006020820190508181036000830152611b348161176c565b9050919050565b60006020820190508181036000830152611b548161178f565b9050919050565b60006020820190508181036000830152611b74816117b2565b9050919050565b60006020820190508181036000830152611b94816117d5565b9050919050565b60006020820190508181036000830152611bb4816117f8565b9050919050565b60006020820190508181036000830152611bd48161181b565b9050919050565b6000602082019050611bf0600083018461183e565b92915050565b6000611c00611c11565b9050611c0c8282611d91565b919050565b6000604051905090565b600067ffffffffffffffff821115611c3657611c35611dfb565b5b611c3f82611e3e565b9050602081019050919050565b600067ffffffffffffffff821115611c6757611c66611dfb565b5b611c7082611e3e565b9050602081019050919050565b600081519050919050565b600081519050919050565b600081905092915050565b600082825260208201905092915050565b600081905092915050565b6000611cc582611ce2565b9050919050565b60008115159050919050565b6000819050919050565b600073ffffffffffffffffffffffffffffffffffffffff82169050919050565b6000819050919050565b600060ff82169050919050565b6000611d2482611d2b565b9050919050565b6000611d3682611d3d565b9050919050565b6000611d4882611ce2565b9050919050565b82818337600083830152505050565b60005b83811015611d7c578082015181840152602081019050611d61565b83811115611d8b576000848401525b50505050565b611d9a82611e3e565b810181811067ffffffffffffffff82111715611db957611db8611dfb565b5b80604052505050565b6000819050919050565b7f4e487b7100000000000000000000000000000000000000000000000000000000600052602160045260246000fd5b7f4e487b7100000000000000000000000000000000000000000000000000000000600052604160045260246000fd5b600080fd5b600080fd5b600080fd5b600080fd5b6000601f19601f8301169050919050565b7f45434453413a20696e76616c6964207369676e61747572650000000000000000600082015250565b7f45434453413a20696e76616c6964207369676e6174757265206c656e67746800600082015250565b7f19457468657265756d205369676e6564204d6573736167653a0a333200000000600082015250565b7f4f776e61626c653a206e6577206f776e657220697320746865207a65726f206160008201527f6464726573730000000000000000000000000000000000000000000000000000602082015250565b7f496e76616c696420726f6c657300000000000000000000000000000000000000600082015250565b7f41646472657373206973206e6f7420617574686f72697a656400000000000000600082015250565b7f496e76616c696420637573744964000000000000000000000000000000000000600082015250565b7f45434453413a20696e76616c6964207369676e6174757265202773272076616c60008201527f7565000000000000000000000000000000000000000000000000000000000000602082015250565b7f416464726573733a20696e73756666696369656e742062616c616e636520666f60008201527f722063616c6c0000000000000000000000000000000000000000000000000000602082015250565b7f416464726573732063616e6e6f74206265207a65726f00000000000000000000600082015250565b7f436865636b2074686520746f6b656e20616c6c6f77616e636500000000000000600082015250565b7f4f776e61626c653a2063616c6c6572206973206e6f7420746865206f776e6572600082015250565b7f496e73756666696369656e7420616d6f756e7400000000000000000000000000600082015250565b7f416464726573733a2063616c6c20746f206e6f6e2d636f6e7472616374000000600082015250565b7f416c7265616479207369676e6174757265207573656400000000000000000000600082015250565b7f5361666545524332303a204552433230206f7065726174696f6e20646964206e60008201527f6f74207375636365656400000000000000000000000000000000000000000000602082015250565b7f5265656e7472616e637947756172643a207265656e7472616e742063616c6c00600082015250565b6121a981611cba565b81146121b457600080fd5b50565b6121c081611ccc565b81146121cb57600080fd5b50565b6121d781611cd8565b81146121e257600080fd5b50565b6121ee81611d02565b81146121f957600080fd5b5056fea2646970667358221220c2dd12958c02c052e5f36ba6b9c6ed0bce10e12966a949e5e59e4a9e08a1132464736f6c63430008070033",
  "linkReferences": {},
  "deployedLinkReferences": {}
}