{
  "_format": "hh-sol-artifact-1",
  "contractName": "UserFundDeposit",
  "sourceName": "contracts/userFundDeposit.sol",
  "abi": [
    {
      "anonymous": false,
      "inputs": [
        {
          "indexed": false,
          "internalType": "address",
          "name": "_from",
          "type": "address"
        },
        {
          "indexed": false,
          "internalType": "address",
          "name": "_to",
          "type": "address"
        },
        {
          "indexed": true,
          "internalType": "uint256",
          "name": "_amount",
          "type": "uint256"
        }
      ],
      "name": "EtherTransfered",
      "type": "event"
    },
    {
      "anonymous": false,
      "inputs": [
        {
          "indexed": true,
          "internalType": "address",
          "name": "previousOwner",
          "type": "address"
        },
        {
          "indexed": true,
          "internalType": "address",
          "name": "newOwner",
          "type": "address"
        }
      ],
      "name": "OwnershipTransferred",
      "type": "event"
    },
    {
      "anonymous": false,
      "inputs": [
        {
          "indexed": false,
          "internalType": "address",
          "name": "_token",
          "type": "address"
        },
        {
          "indexed": false,
          "internalType": "address",
          "name": "_from",
          "type": "address"
        },
        {
          "indexed": false,
          "internalType": "address",
          "name": "_to",
          "type": "address"
        },
        {
          "indexed": true,
          "internalType": "uint256",
          "name": "_amount",
          "type": "uint256"
        }
      ],
      "name": "TokenTransfered",
      "type": "event"
    },
    {
      "inputs": [
        {
          "internalType": "string",
          "name": "custId",
          "type": "string"
        },
        {
          "internalType": "uint256",
          "name": "roles",
          "type": "uint256"
        },
        {
          "internalType": "bytes32",
          "name": "hash",
          "type": "bytes32"
        },
        {
          "internalType": "bytes",
          "name": "signature",
          "type": "bytes"
        }
      ],
      "name": "depositEtherFund",
      "outputs": [],
      "stateMutability": "payable",
      "type": "function"
    },
    {
      "inputs": [
        {
          "internalType": "address",
          "name": "tokenAddress",
          "type": "address"
        },
        {
          "internalType": "string",
          "name": "custId",
          "type": "string"
        },
        {
          "internalType": "uint256",
          "name": "roles",
          "type": "uint256"
        },
        {
          "internalType": "uint256",
          "name": "amount",
          "type": "uint256"
        },
        {
          "internalType": "bytes32",
          "name": "hash",
          "type": "bytes32"
        },
        {
          "internalType": "bytes",
          "name": "signature",
          "type": "bytes"
        }
      ],
      "name": "depositTokenFund",
      "outputs": [],
      "stateMutability": "nonpayable",
      "type": "function"
    },
    {
      "inputs": [
        {
          "internalType": "address",
          "name": "tokenAddress",
          "type": "address"
        },
        {
          "internalType": "address",
          "name": "recipient",
          "type": "address"
        }
      ],
      "name": "getTokenBalance",
      "outputs": [
        {
          "internalType": "uint256",
          "name": "",
          "type": "uint256"
        }
      ],
      "stateMutability": "view",
      "type": "function"
    },
    {
      "inputs": [],
      "name": "getTransferedAddress",
      "outputs": [
        {
          "internalType": "address",
          "name": "",
          "type": "address"
        }
      ],
      "stateMutability": "view",
      "type": "function"
    },
    {
      "inputs": [],
      "name": "owner",
      "outputs": [
        {
          "internalType": "address",
          "name": "",
          "type": "address"
        }
      ],
      "stateMutability": "view",
      "type": "function"
    },
    {
      "inputs": [],
      "name": "renounceOwnership",
      "outputs": [],
      "stateMutability": "nonpayable",
      "type": "function"
    },
    {
      "inputs": [
        {
          "internalType": "address",
          "name": "newTransferedAddress",
          "type": "address"
        }
      ],
      "name": "setTransferedAddress",
      "outputs": [],
      "stateMutability": "nonpayable",
      "type": "function"
    },
    {
      "inputs": [
        {
          "internalType": "address",
          "name": "newOwner",
          "type": "address"
        }
      ],
      "name": "transferOwnership",
      "outputs": [],
      "stateMutability": "nonpayable",
      "type": "function"
    }
  ],
  "bytecode": "0x6080604052600a600255601460035534801561001a57600080fd5b5061003761002c61004360201b60201c565b61004b60201b60201c565b6001808190555061010f565b600033905090565b60008060009054906101000a900473ffffffffffffffffffffffffffffffffffffffff169050816000806101000a81548173ffffffffffffffffffffffffffffffffffffffff021916908373ffffffffffffffffffffffffffffffffffffffff1602179055508173ffffffffffffffffffffffffffffffffffffffff168173ffffffffffffffffffffffffffffffffffffffff167f8be0079c531659141344cd1fd0a4f28419497f9722a3daafe3b4186f6b6457e060405160405180910390a35050565b612499806200011f6000396000f3fe60806040526004361061007b5760003560e01c8063c3eb9d1c1161004e578063c3eb9d1c14610107578063c489744b14610132578063e7e0bbf01461016f578063f2fde38b146101985761007b565b8063715018a61461008057806385505f9b146100975780638da5cb5b146100b3578063975b2cde146100de575b600080fd5b34801561008c57600080fd5b506100956101c1565b005b6100b160048036038101906100ac91906116b4565b6101d5565b005b3480156100bf57600080fd5b506100c861053f565b6040516100d59190611af0565b60405180910390f35b3480156100ea57600080fd5b50610105600480360381019061010091906115c2565b610568565b005b34801561011357600080fd5b5061011c6109c8565b6040516101299190611af0565b60405180910390f35b34801561013e57600080fd5b5061015960048036038101906101549190611582565b6109fa565b6040516101669190611e29565b60405180910390f35b34801561017b57600080fd5b5061019660048036038101906101919190611555565b610b72565b005b3480156101a457600080fd5b506101bf60048036038101906101ba9190611555565b610bbe565b005b6101c9610c42565b6101d36000610cc0565b565b6101dd610d84565b600a8314806101ec5750601483145b61022b576040517f08c379a000000000000000000000000000000000000000000000000000000000815260040161022290611c69565b60405180910390fd5b600034141561026f576040517f08c379a000000000000000000000000000000000000000000000000000000000815260040161026690611d89565b60405180910390fd5b60008451116102b3576040517f08c379a00000000000000000000000000000000000000000000000000000000081526004016102aa90611ca9565b60405180910390fd5b600073ffffffffffffffffffffffffffffffffffffffff16600460009054906101000a900473ffffffffffffffffffffffffffffffffffffffff1673ffffffffffffffffffffffffffffffffffffffff161415610345576040517f08c379a000000000000000000000000000000000000000000000000000000000815260040161033c90611d69565b60405180910390fd5b61034d61053f565b73ffffffffffffffffffffffffffffffffffffffff1661036d8383610dd4565b73ffffffffffffffffffffffffffffffffffffffff16146103c3576040517f08c379a00000000000000000000000000000000000000000000000000000000081526004016103ba90611c89565b60405180910390fd5b6005816040516103d39190611ab3565b908152602001604051809103902060009054906101000a900460ff161561042f576040517f08c379a000000000000000000000000000000000000000000000000000000000815260040161042690611dc9565b60405180910390fd5b6000600460009054906101000a900473ffffffffffffffffffffffffffffffffffffffff169050347f8062a128e9e0dd636284e6105d2de7173e2ac59a098f5be5c3a9cf2c9142e79633600460009054906101000a900473ffffffffffffffffffffffffffffffffffffffff166040516104aa929190611b0b565b60405180910390a28073ffffffffffffffffffffffffffffffffffffffff166108fc349081150290604051600060405180830381858888f193505050501580156104f8573d6000803e3d6000fd5b50600160058360405161050b9190611ab3565b908152602001604051809103902060006101000a81548160ff02191690831515021790555050610539610e13565b50505050565b60008060009054906101000a900473ffffffffffffffffffffffffffffffffffffffff16905090565b600a8414806105775750601484145b6105b6576040517f08c379a00000000000000000000000000000000000000000000000000000000081526004016105ad90611c69565b60405180910390fd5b60008314156105fa576040517f08c379a00000000000000000000000000000000000000000000000000000000081526004016105f190611d89565b60405180910390fd5b600073ffffffffffffffffffffffffffffffffffffffff168673ffffffffffffffffffffffffffffffffffffffff16141561066a576040517f08c379a000000000000000000000000000000000000000000000000000000000815260040161066190611d09565b60405180910390fd5b600073ffffffffffffffffffffffffffffffffffffffff16600460009054906101000a900473ffffffffffffffffffffffffffffffffffffffff1673ffffffffffffffffffffffffffffffffffffffff1614156106fc576040517f08c379a00000000000000000000000000000000000000000000000000000000081526004016106f390611d69565b60405180910390fd5b6000855111610740576040517f08c379a000000000000000000000000000000000000000000000000000000000815260040161073790611ca9565b60405180910390fd5b61074861053f565b73ffffffffffffffffffffffffffffffffffffffff166107688383610dd4565b73ffffffffffffffffffffffffffffffffffffffff16146107be576040517f08c379a00000000000000000000000000000000000000000000000000000000081526004016107b590611c89565b60405180910390fd5b6005816040516107ce9190611ab3565b908152602001604051809103902060009054906101000a900460ff161561082a576040517f08c379a000000000000000000000000000000000000000000000000000000000815260040161082190611dc9565b60405180910390fd5b6000869050838173ffffffffffffffffffffffffffffffffffffffff1663dd62ed3e33306040518363ffffffff1660e01b815260040161086b929190611b0b565b60206040518083038186803b15801561088357600080fd5b505afa158015610897573d6000803e3d6000fd5b505050506040513d601f19601f820116820180604052508101906108bb9190611753565b10156108fc576040517f08c379a00000000000000000000000000000000000000000000000000000000081526004016108f390611d29565b60405180910390fd5b600160058360405161090e9190611ab3565b908152602001604051809103902060006101000a81548160ff021916908315150217905550837fa7814aaf178d6c8e61b2703f3dc1b8328dd6c99cbb405bf8f1bb0cb1bbb051a58833600460009054906101000a900473ffffffffffffffffffffffffffffffffffffffff1660405161098993929190611b34565b60405180910390a26109bf8133600460009054906101000a900473ffffffffffffffffffffffffffffffffffffffff1687610e1c565b50505050505050565b60006109d2610c42565b600460009054906101000a900473ffffffffffffffffffffffffffffffffffffffff16905090565b60008073ffffffffffffffffffffffffffffffffffffffff168373ffffffffffffffffffffffffffffffffffffffff161415610a6b576040517f08c379a0000000000000000000000000000000000000000000000000000000008152600401610a6290611d09565b60405180910390fd5b600073ffffffffffffffffffffffffffffffffffffffff168273ffffffffffffffffffffffffffffffffffffffff161415610adb576040517f08c379a0000000000000000000000000000000000000000000000000000000008152600401610ad290611d09565b60405180910390fd5b60008390508073ffffffffffffffffffffffffffffffffffffffff166370a08231846040518263ffffffff1660e01b8152600401610b199190611af0565b60206040518083038186803b158015610b3157600080fd5b505afa158015610b45573d6000803e3d6000fd5b505050506040513d601f19601f82011682018060405250810190610b699190611753565b91505092915050565b610b7a610c42565b80600460006101000a81548173ffffffffffffffffffffffffffffffffffffffff021916908373ffffffffffffffffffffffffffffffffffffffff16021790555050565b610bc6610c42565b600073ffffffffffffffffffffffffffffffffffffffff168173ffffffffffffffffffffffffffffffffffffffff161415610c36576040517f08c379a0000000000000000000000000000000000000000000000000000000008152600401610c2d90611c49565b60405180910390fd5b610c3f81610cc0565b50565b610c4a610ea5565b73ffffffffffffffffffffffffffffffffffffffff16610c6861053f565b73ffffffffffffffffffffffffffffffffffffffff1614610cbe576040517f08c379a0000000000000000000000000000000000000000000000000000000008152600401610cb590611d49565b60405180910390fd5b565b60008060009054906101000a900473ffffffffffffffffffffffffffffffffffffffff169050816000806101000a81548173ffffffffffffffffffffffffffffffffffffffff021916908373ffffffffffffffffffffffffffffffffffffffff1602179055508173ffffffffffffffffffffffffffffffffffffffff168173ffffffffffffffffffffffffffffffffffffffff167f8be0079c531659141344cd1fd0a4f28419497f9722a3daafe3b4186f6b6457e060405160405180910390a35050565b60026001541415610dca576040517f08c379a0000000000000000000000000000000000000000000000000000000008152600401610dc190611e09565b60405180910390fd5b6002600181905550565b60008083604051602001610de89190611aca565b604051602081830303815290604052805190602001209050610e0a8184610ead565b91505092915050565b60018081905550565b610e9f846323b872dd60e01b858585604051602401610e3d93929190611b6b565b604051602081830303815290604052907bffffffffffffffffffffffffffffffffffffffffffffffffffffffff19166020820180517bffffffffffffffffffffffffffffffffffffffffffffffffffffffff8381831617835250505050610ed4565b50505050565b600033905090565b6000806000610ebc8585610f9b565b91509150610ec981610fed565b819250505092915050565b6000610f36826040518060400160405280602081526020017f5361666545524332303a206c6f772d6c6576656c2063616c6c206661696c65648152508573ffffffffffffffffffffffffffffffffffffffff1661115b9092919063ffffffff16565b9050600081511115610f965780806020019051810190610f569190611687565b610f95576040517f08c379a0000000000000000000000000000000000000000000000000000000008152600401610f8c90611de9565b60405180910390fd5b5b505050565b600080604183511415610fdd5760008060006020860151925060408601519150606086015160001a9050610fd187828585611173565b94509450505050610fe6565b60006002915091505b9250929050565b6000600481111561100157611000611fe4565b5b81600481111561101457611013611fe4565b5b141561101f57611158565b6001600481111561103357611032611fe4565b5b81600481111561104657611045611fe4565b5b1415611087576040517f08c379a000000000000000000000000000000000000000000000000000000000815260040161107e90611c09565b60405180910390fd5b6002600481111561109b5761109a611fe4565b5b8160048111156110ae576110ad611fe4565b5b14156110ef576040517f08c379a00000000000000000000000000000000000000000000000000000000081526004016110e690611c29565b60405180910390fd5b6003600481111561110357611102611fe4565b5b81600481111561111657611115611fe4565b5b1415611157576040517f08c379a000000000000000000000000000000000000000000000000000000000815260040161114e90611cc9565b60405180910390fd5b5b50565b606061116a8484600085611256565b90509392505050565b6000807f7fffffffffffffffffffffffffffffff5d576e7357a4501ddfe92f46681b20a08360001c11156111ae57600060039150915061124d565b6000600187878787604051600081526020016040526040516111d39493929190611ba2565b6020604051602081039080840390855afa1580156111f5573d6000803e3d6000fd5b505050602060405103519050600073ffffffffffffffffffffffffffffffffffffffff168173ffffffffffffffffffffffffffffffffffffffff1614156112445760006001925092505061124d565b80600092509250505b94509492505050565b60608247101561129b576040517f08c379a000000000000000000000000000000000000000000000000000000000815260040161129290611ce9565b60405180910390fd5b6000808673ffffffffffffffffffffffffffffffffffffffff1685876040516112c49190611ab3565b60006040518083038185875af1925050503d8060008114611301576040519150601f19603f3d011682016040523d82523d6000602084013e611306565b606091505b509150915061131787838387611323565b92505050949350505050565b606083156113865760008351141561137e5761133e85611399565b61137d576040517f08c379a000000000000000000000000000000000000000000000000000000000815260040161137490611da9565b60405180910390fd5b5b829050611391565b61139083836113bc565b5b949350505050565b6000808273ffffffffffffffffffffffffffffffffffffffff163b119050919050565b6000825111156113cf5781518083602001fd5b806040517f08c379a00000000000000000000000000000000000000000000000000000000081526004016114039190611be7565b60405180910390fd5b600061141f61141a84611e69565b611e44565b90508281526020810184848401111561143b5761143a612047565b5b611446848285611f67565b509392505050565b600061146161145c84611e9a565b611e44565b90508281526020810184848401111561147d5761147c612047565b5b611488848285611f67565b509392505050565b60008135905061149f81612407565b92915050565b6000815190506114b48161241e565b92915050565b6000813590506114c981612435565b92915050565b600082601f8301126114e4576114e3612042565b5b81356114f484826020860161140c565b91505092915050565b600082601f83011261151257611511612042565b5b813561152284826020860161144e565b91505092915050565b60008135905061153a8161244c565b92915050565b60008151905061154f8161244c565b92915050565b60006020828403121561156b5761156a612051565b5b600061157984828501611490565b91505092915050565b6000806040838503121561159957611598612051565b5b60006115a785828601611490565b92505060206115b885828601611490565b9150509250929050565b60008060008060008060c087890312156115df576115de612051565b5b60006115ed89828a01611490565b965050602087013567ffffffffffffffff81111561160e5761160d61204c565b5b61161a89828a016114fd565b955050604061162b89828a0161152b565b945050606061163c89828a0161152b565b935050608061164d89828a016114ba565b92505060a087013567ffffffffffffffff81111561166e5761166d61204c565b5b61167a89828a016114cf565b9150509295509295509295565b60006020828403121561169d5761169c612051565b5b60006116ab848285016114a5565b91505092915050565b600080600080608085870312156116ce576116cd612051565b5b600085013567ffffffffffffffff8111156116ec576116eb61204c565b5b6116f8878288016114fd565b94505060206117098782880161152b565b935050604061171a878288016114ba565b925050606085013567ffffffffffffffff81111561173b5761173a61204c565b5b611747878288016114cf565b91505092959194509250565b60006020828403121561176957611768612051565b5b600061177784828501611540565b91505092915050565b61178981611f08565b82525050565b61179881611f26565b82525050565b6117af6117aa82611f26565b611fda565b82525050565b60006117c082611ecb565b6117ca8185611ee1565b93506117da818560208601611f76565b80840191505092915050565b60006117f182611ed6565b6117fb8185611eec565b935061180b818560208601611f76565b61181481612056565b840191505092915050565b600061182c601883611eec565b915061183782612067565b602082019050919050565b600061184f601f83611eec565b915061185a82612090565b602082019050919050565b6000611872601c83611efd565b915061187d826120b9565b601c82019050919050565b6000611895602683611eec565b91506118a0826120e2565b604082019050919050565b60006118b8600d83611eec565b91506118c382612131565b602082019050919050565b60006118db601983611eec565b91506118e68261215a565b602082019050919050565b60006118fe600e83611eec565b915061190982612183565b602082019050919050565b6000611921602283611eec565b915061192c826121ac565b604082019050919050565b6000611944602683611eec565b915061194f826121fb565b604082019050919050565b6000611967601683611eec565b91506119728261224a565b602082019050919050565b600061198a601983611eec565b915061199582612273565b602082019050919050565b60006119ad602083611eec565b91506119b88261229c565b602082019050919050565b60006119d0602583611eec565b91506119db826122c5565b604082019050919050565b60006119f3601383611eec565b91506119fe82612314565b602082019050919050565b6000611a16601d83611eec565b9150611a218261233d565b602082019050919050565b6000611a39601683611eec565b9150611a4482612366565b602082019050919050565b6000611a5c602a83611eec565b9150611a678261238f565b604082019050919050565b6000611a7f601f83611eec565b9150611a8a826123de565b602082019050919050565b611a9e81611f50565b82525050565b611aad81611f5a565b82525050565b6000611abf82846117b5565b915081905092915050565b6000611ad582611865565b9150611ae1828461179e565b60208201915081905092915050565b6000602082019050611b056000830184611780565b92915050565b6000604082019050611b206000830185611780565b611b2d6020830184611780565b9392505050565b6000606082019050611b496000830186611780565b611b566020830185611780565b611b636040830184611780565b949350505050565b6000606082019050611b806000830186611780565b611b8d6020830185611780565b611b9a6040830184611a95565b949350505050565b6000608082019050611bb7600083018761178f565b611bc46020830186611aa4565b611bd1604083018561178f565b611bde606083018461178f565b95945050505050565b60006020820190508181036000830152611c0181846117e6565b905092915050565b60006020820190508181036000830152611c228161181f565b9050919050565b60006020820190508181036000830152611c4281611842565b9050919050565b60006020820190508181036000830152611c6281611888565b9050919050565b60006020820190508181036000830152611c82816118ab565b9050919050565b60006020820190508181036000830152611ca2816118ce565b9050919050565b60006020820190508181036000830152611cc2816118f1565b9050919050565b60006020820190508181036000830152611ce281611914565b9050919050565b60006020820190508181036000830152611d0281611937565b9050919050565b60006020820190508181036000830152611d228161195a565b9050919050565b60006020820190508181036000830152611d428161197d565b9050919050565b60006020820190508181036000830152611d62816119a0565b9050919050565b60006020820190508181036000830152611d82816119c3565b9050919050565b60006020820190508181036000830152611da2816119e6565b9050919050565b60006020820190508181036000830152611dc281611a09565b9050919050565b60006020820190508181036000830152611de281611a2c565b9050919050565b60006020820190508181036000830152611e0281611a4f565b9050919050565b60006020820190508181036000830152611e2281611a72565b9050919050565b6000602082019050611e3e6000830184611a95565b92915050565b6000611e4e611e5f565b9050611e5a8282611fa9565b919050565b6000604051905090565b600067ffffffffffffffff821115611e8457611e83612013565b5b611e8d82612056565b9050602081019050919050565b600067ffffffffffffffff821115611eb557611eb4612013565b5b611ebe82612056565b9050602081019050919050565b600081519050919050565b600081519050919050565b600081905092915050565b600082825260208201905092915050565b600081905092915050565b6000611f1382611f30565b9050919050565b60008115159050919050565b6000819050919050565b600073ffffffffffffffffffffffffffffffffffffffff82169050919050565b6000819050919050565b600060ff82169050919050565b82818337600083830152505050565b60005b83811015611f94578082015181840152602081019050611f79565b83811115611fa3576000848401525b50505050565b611fb282612056565b810181811067ffffffffffffffff82111715611fd157611fd0612013565b5b80604052505050565b6000819050919050565b7f4e487b7100000000000000000000000000000000000000000000000000000000600052602160045260246000fd5b7f4e487b7100000000000000000000000000000000000000000000000000000000600052604160045260246000fd5b600080fd5b600080fd5b600080fd5b600080fd5b6000601f19601f8301169050919050565b7f45434453413a20696e76616c6964207369676e61747572650000000000000000600082015250565b7f45434453413a20696e76616c6964207369676e6174757265206c656e67746800600082015250565b7f19457468657265756d205369676e6564204d6573736167653a0a333200000000600082015250565b7f4f776e61626c653a206e6577206f776e657220697320746865207a65726f206160008201527f6464726573730000000000000000000000000000000000000000000000000000602082015250565b7f496e76616c696420726f6c657300000000000000000000000000000000000000600082015250565b7f41646472657373206973206e6f7420617574686f72697a656400000000000000600082015250565b7f496e76616c696420637573744964000000000000000000000000000000000000600082015250565b7f45434453413a20696e76616c6964207369676e6174757265202773272076616c60008201527f7565000000000000000000000000000000000000000000000000000000000000602082015250565b7f416464726573733a20696e73756666696369656e742062616c616e636520666f60008201527f722063616c6c0000000000000000000000000000000000000000000000000000602082015250565b7f416464726573732063616e6e6f74206265207a65726f00000000000000000000600082015250565b7f436865636b2074686520746f6b656e20616c6c6f77616e636500000000000000600082015250565b7f4f776e61626c653a2063616c6c6572206973206e6f7420746865206f776e6572600082015250565b7f5472616e7366657265644164647265737320616464726573732063616e6e6f7460008201527f2062652030000000000000000000000000000000000000000000000000000000602082015250565b7f496e73756666696369656e7420616d6f756e7400000000000000000000000000600082015250565b7f416464726573733a2063616c6c20746f206e6f6e2d636f6e7472616374000000600082015250565b7f416c7265616479207369676e6174757265207573656400000000000000000000600082015250565b7f5361666545524332303a204552433230206f7065726174696f6e20646964206e60008201527f6f74207375636365656400000000000000000000000000000000000000000000602082015250565b7f5265656e7472616e637947756172643a207265656e7472616e742063616c6c00600082015250565b61241081611f08565b811461241b57600080fd5b50565b61242781611f1a565b811461243257600080fd5b50565b61243e81611f26565b811461244957600080fd5b50565b61245581611f50565b811461246057600080fd5b5056fea2646970667358221220d2cb039e60c71618d73dd50f907caed81d9673df5a4936893f1916bd9b9fbcfb64736f6c63430008070033",
  "linkReferences": {},
  "deployedLinkReferences": {}
}