{
  "_format": "hh-sol-artifact-1",
  "contractName": "UserFundDeposit",
  "sourceName": "contracts/userFundDeposit.sol",
  "abi": [
    {
      "anonymous": false,
      "inputs": [
        {
          "indexed": false,
          "internalType": "address",
          "name": "_from",
          "type": "address"
        },
        {
          "indexed": false,
          "internalType": "address",
          "name": "_to",
          "type": "address"
        },
        {
          "indexed": true,
          "internalType": "uint256",
          "name": "_amount",
          "type": "uint256"
        }
      ],
      "name": "EtherTransfered",
      "type": "event"
    },
    {
      "anonymous": false,
      "inputs": [
        {
          "indexed": true,
          "internalType": "address",
          "name": "previousOwner",
          "type": "address"
        },
        {
          "indexed": true,
          "internalType": "address",
          "name": "newOwner",
          "type": "address"
        }
      ],
      "name": "OwnershipTransferred",
      "type": "event"
    },
    {
      "anonymous": false,
      "inputs": [
        {
          "indexed": false,
          "internalType": "address",
          "name": "_token",
          "type": "address"
        },
        {
          "indexed": false,
          "internalType": "address",
          "name": "_from",
          "type": "address"
        },
        {
          "indexed": false,
          "internalType": "address",
          "name": "_to",
          "type": "address"
        },
        {
          "indexed": true,
          "internalType": "uint256",
          "name": "_amount",
          "type": "uint256"
        }
      ],
      "name": "TokenTransfered",
      "type": "event"
    },
    {
      "inputs": [
        {
          "internalType": "bytes32",
          "name": "hash",
          "type": "bytes32"
        },
        {
          "internalType": "bytes",
          "name": "signature",
          "type": "bytes"
        }
      ],
      "name": "depositFundUsingEther",
      "outputs": [],
      "stateMutability": "payable",
      "type": "function"
    },
    {
      "inputs": [
        {
          "internalType": "address",
          "name": "tokenAddress",
          "type": "address"
        },
        {
          "internalType": "uint256",
          "name": "amount",
          "type": "uint256"
        },
        {
          "internalType": "bytes32",
          "name": "hash",
          "type": "bytes32"
        },
        {
          "internalType": "bytes",
          "name": "signature",
          "type": "bytes"
        }
      ],
      "name": "depositFundUsingToken",
      "outputs": [],
      "stateMutability": "nonpayable",
      "type": "function"
    },
    {
      "inputs": [],
      "name": "owner",
      "outputs": [
        {
          "internalType": "address",
          "name": "",
          "type": "address"
        }
      ],
      "stateMutability": "view",
      "type": "function"
    },
    {
      "inputs": [],
      "name": "renounceOwnership",
      "outputs": [],
      "stateMutability": "nonpayable",
      "type": "function"
    },
    {
      "inputs": [
        {
          "internalType": "address",
          "name": "newOwner",
          "type": "address"
        }
      ],
      "name": "transferOwnership",
      "outputs": [],
      "stateMutability": "nonpayable",
      "type": "function"
    },
    {
      "inputs": [
        {
          "internalType": "address",
          "name": "tokenAddress",
          "type": "address"
        },
        {
          "internalType": "address",
          "name": "recipient",
          "type": "address"
        }
      ],
      "name": "withdrawToken",
      "outputs": [],
      "stateMutability": "nonpayable",
      "type": "function"
    }
  ],
  "bytecode": "0x6080604052600436106100555760003560e01c80633aeac4e11461005a578063715018a61461007c5780637aca56571461009157806389a359c6146100b15780638da5cb5b146100c4578063f2fde38b146100f0575b600080fd5b34801561006657600080fd5b5061007a610075366004610f83565b610110565b005b34801561008857600080fd5b5061007a6102b5565b34801561009d57600080fd5b5061007a6100ac366004610fb6565b6102c9565b61007a6100bf366004611039565b610589565b3480156100d057600080fd5b50600054604080516001600160a01b039092168252519081900360200190f35b3480156100fc57600080fd5b5061007a61010b366004610f61565b610765565b6101186107de565b6001600160a01b03811661016c5760405162461bcd60e51b8152602060048201526016602482015275416464726573732063616e6e6f74206265207a65726f60501b60448201526064015b60405180910390fd5b6040516370a0823160e01b815230600482015282906000906001600160a01b038316906370a082319060240160206040518083038186803b1580156101b057600080fd5b505afa1580156101c4573d6000803e3d6000fd5b505050506040513d601f19601f820116820180604052508101906101e89190611080565b1161022c5760405162461bcd60e51b8152602060048201526014602482015273496e73756666696369656e742062616c616e636560601b6044820152606401610163565b6040516370a0823160e01b81523060048201526102b090829084906001600160a01b038316906370a082319060240160206040518083038186803b15801561027357600080fd5b505afa158015610287573d6000803e3d6000fd5b505050506040513d601f19601f820116820180604052508101906102ab9190611080565b610838565b505050565b6102bd6107de565b6102c7600061089b565b565b8261030c5760405162461bcd60e51b8152602060048201526013602482015272125b9cdd59999a58da595b9d08185b5bdd5b9d606a1b6044820152606401610163565b6001600160a01b03841661035b5760405162461bcd60e51b8152602060048201526016602482015275416464726573732063616e6e6f74206265207a65726f60501b6044820152606401610163565b6000546001600160a01b031661037183836108eb565b6001600160a01b0316146103c35760405162461bcd60e51b81526020600482015260196024820152781059191c995cdcc81a5cc81b9bdd08185d5d1a1bdc9a5e9959603a1b6044820152606401610163565b6002816040516103d39190611099565b9081526040519081900360200190205460ff161561042c5760405162461bcd60e51b8152602060048201526016602482015275105b1c9958591e481cda59db985d1d5c99481d5cd95960521b6044820152606401610163565b604051636eb1769f60e11b8152336004820152306024820152849084906001600160a01b0383169063dd62ed3e9060440160206040518083038186803b15801561047557600080fd5b505afa158015610489573d6000803e3d6000fd5b505050506040513d601f19601f820116820180604052508101906104ad9190611080565b10156104fb5760405162461bcd60e51b815260206004820152601960248201527f436865636b2074686520746f6b656e20616c6c6f77616e6365000000000000006044820152606401610163565b600160028360405161050d9190611099565b9081526040805160209281900383018120805460ff1916941515949094179093556001600160a01b03881683523391830191909152309082015284907fa7814aaf178d6c8e61b2703f3dc1b8328dd6c99cbb405bf8f1bb0cb1bbb051a59060600160405180910390a26105828133308761094d565b5050505050565b61059161098b565b346105d45760405162461bcd60e51b8152602060048201526013602482015272125b9cdd59999a58da595b9d08185b5bdd5b9d606a1b6044820152606401610163565b6000546001600160a01b03166105ea83836108eb565b6001600160a01b03161461063c5760405162461bcd60e51b81526020600482015260196024820152781059191c995cdcc81a5cc81b9bdd08185d5d1a1bdc9a5e9959603a1b6044820152606401610163565b60028160405161064c9190611099565b9081526040519081900360200190205460ff16156106a55760405162461bcd60e51b8152602060048201526016602482015275105b1c9958591e481cda59db985d1d5c99481d5cd95960521b6044820152606401610163565b600054604080513381526001600160a01b03909216602083018190529134917f8062a128e9e0dd636284e6105d2de7173e2ac59a098f5be5c3a9cf2c9142e796910160405180910390a26040516001600160a01b038216903480156108fc02916000818181858888f19350505050158015610724573d6000803e3d6000fd5b5060016002836040516107379190611099565b908152604051908190036020019020805491151560ff199092169190911790555061076160018055565b5050565b61076d6107de565b6001600160a01b0381166107d25760405162461bcd60e51b815260206004820152602660248201527f4f776e61626c653a206e6577206f776e657220697320746865207a65726f206160448201526564647265737360d01b6064820152608401610163565b6107db8161089b565b50565b6000546001600160a01b031633146102c75760405162461bcd60e51b815260206004820181905260248201527f4f776e61626c653a2063616c6c6572206973206e6f7420746865206f776e65726044820152606401610163565b6040516001600160a01b0383166024820152604481018290526102b090849063a9059cbb60e01b906064015b60408051601f198184030181529190526020810180516001600160e01b03166001600160e01b0319909316929092179091526109e5565b600080546001600160a01b038381166001600160a01b0319831681178455604051919092169283917f8be0079c531659141344cd1fd0a4f28419497f9722a3daafe3b4186f6b6457e09190a35050565b6040517f19457468657265756d205369676e6564204d6573736167653a0a3332000000006020820152603c81018390526000908190605c016040516020818303038152906040528051906020012090506109458184610ab7565b949350505050565b6040516001600160a01b03808516602483015283166044820152606481018290526109859085906323b872dd60e01b90608401610864565b50505050565b600260015414156109de5760405162461bcd60e51b815260206004820152601f60248201527f5265656e7472616e637947756172643a207265656e7472616e742063616c6c006044820152606401610163565b6002600155565b6000610a3a826040518060400160405280602081526020017f5361666545524332303a206c6f772d6c6576656c2063616c6c206661696c6564815250856001600160a01b0316610adb9092919063ffffffff16565b8051909150156102b05780806020019051810190610a589190611017565b6102b05760405162461bcd60e51b815260206004820152602a60248201527f5361666545524332303a204552433230206f7065726174696f6e20646964206e6044820152691bdd081cdd58d8d9595960b21b6064820152608401610163565b6000806000610ac68585610aea565b91509150610ad381610b30565b509392505050565b60606109458484600085610c7e565b600080825160411415610b215760208301516040840151606085015160001a610b1587828585610d59565b94509450505050610b29565b506000905060025b9250929050565b6000816004811115610b4457610b44611114565b1415610b4d5750565b6001816004811115610b6157610b61611114565b1415610baf5760405162461bcd60e51b815260206004820152601860248201527f45434453413a20696e76616c6964207369676e617475726500000000000000006044820152606401610163565b6002816004811115610bc357610bc3611114565b1415610c115760405162461bcd60e51b815260206004820152601f60248201527f45434453413a20696e76616c6964207369676e6174757265206c656e677468006044820152606401610163565b6003816004811115610c2557610c25611114565b14156107db5760405162461bcd60e51b815260206004820152602260248201527f45434453413a20696e76616c6964207369676e6174757265202773272076616c604482015261756560f01b6064820152608401610163565b606082471015610cdf5760405162461bcd60e51b815260206004820152602660248201527f416464726573733a20696e73756666696369656e742062616c616e636520666f6044820152651c8818d85b1b60d21b6064820152608401610163565b600080866001600160a01b03168587604051610cfb9190611099565b60006040518083038185875af1925050503d8060008114610d38576040519150601f19603f3d011682016040523d82523d6000602084013e610d3d565b606091505b5091509150610d4e87838387610e1d565b979650505050505050565b6000807f7fffffffffffffffffffffffffffffff5d576e7357a4501ddfe92f46681b20a0831115610d905750600090506003610e14565b6040805160008082526020820180845289905260ff881692820192909252606081018690526080810185905260019060a0016020604051602081039080840390855afa158015610de4573d6000803e3d6000fd5b5050604051601f1901519150506001600160a01b038116610e0d57600060019250925050610e14565b9150600090505b94509492505050565b60608315610e89578251610e82576001600160a01b0385163b610e825760405162461bcd60e51b815260206004820152601d60248201527f416464726573733a2063616c6c20746f206e6f6e2d636f6e74726163740000006044820152606401610163565b5081610945565b6109458383815115610e9e5781518083602001fd5b8060405162461bcd60e51b815260040161016391906110b5565b80356001600160a01b0381168114610ecf57600080fd5b919050565b600082601f830112610ee557600080fd5b813567ffffffffffffffff80821115610f0057610f0061112a565b604051601f8301601f19908116603f01168101908282118183101715610f2857610f2861112a565b81604052838152866020858801011115610f4157600080fd5b836020870160208301376000602085830101528094505050505092915050565b600060208284031215610f7357600080fd5b610f7c82610eb8565b9392505050565b60008060408385031215610f9657600080fd5b610f9f83610eb8565b9150610fad60208401610eb8565b90509250929050565b60008060008060808587031215610fcc57600080fd5b610fd585610eb8565b93506020850135925060408501359150606085013567ffffffffffffffff811115610fff57600080fd5b61100b87828801610ed4565b91505092959194509250565b60006020828403121561102957600080fd5b81518015158114610f7c57600080fd5b6000806040838503121561104c57600080fd5b82359150602083013567ffffffffffffffff81111561106a57600080fd5b61107685828601610ed4565b9150509250929050565b60006020828403121561109257600080fd5b5051919050565b600082516110ab8184602087016110e8565b9190910192915050565b60208152600082518060208401526110d48160408501602087016110e8565b601f01601f19169190910160400192915050565b60005b838110156111035781810151838201526020016110eb565b838111156109855750506000910152565b634e487b7160e01b600052602160045260246000fd5b634e487b7160e01b600052604160045260246000fdfea264697066735822122057a36e65ec7a449f4986ec9957f710b04cbadaaf0bd8f43d7d6d054013040e9764736f6c63430008070033",
  "linkReferences": {},
  "deployedLinkReferences": {}
}