{
  "_format": "hh-sol-artifact-1",
  "contractName": "UserFundDeposit",
  "sourceName": "contracts/userFundDeposit.sol",
  "abi": [
    {
      "anonymous": false,
      "inputs": [
        {
          "indexed": false,
          "internalType": "address",
          "name": "_from",
          "type": "address"
        },
        {
          "indexed": false,
          "internalType": "address",
          "name": "_to",
          "type": "address"
        },
        {
          "indexed": true,
          "internalType": "uint256",
          "name": "_amount",
          "type": "uint256"
        }
      ],
      "name": "EtherTransfered",
      "type": "event"
    },
    {
      "anonymous": false,
      "inputs": [
        {
          "indexed": true,
          "internalType": "address",
          "name": "previousOwner",
          "type": "address"
        },
        {
          "indexed": true,
          "internalType": "address",
          "name": "newOwner",
          "type": "address"
        }
      ],
      "name": "OwnershipTransferred",
      "type": "event"
    },
    {
      "anonymous": false,
      "inputs": [
        {
          "indexed": false,
          "internalType": "address",
          "name": "_token",
          "type": "address"
        },
        {
          "indexed": false,
          "internalType": "address",
          "name": "_from",
          "type": "address"
        },
        {
          "indexed": false,
          "internalType": "address",
          "name": "_to",
          "type": "address"
        },
        {
          "indexed": true,
          "internalType": "uint256",
          "name": "_amount",
          "type": "uint256"
        }
      ],
      "name": "TokenTransfered",
      "type": "event"
    },
    {
      "inputs": [
        {
          "internalType": "string",
          "name": "custId",
          "type": "string"
        },
        {
          "internalType": "uint256",
          "name": "roles",
          "type": "uint256"
        },
        {
          "internalType": "bytes32",
          "name": "hash",
          "type": "bytes32"
        },
        {
          "internalType": "bytes",
          "name": "signature",
          "type": "bytes"
        }
      ],
      "name": "depositEtherFund",
      "outputs": [],
      "stateMutability": "payable",
      "type": "function"
    },
    {
      "inputs": [
        {
          "internalType": "address",
          "name": "tokenAddress",
          "type": "address"
        },
        {
          "internalType": "string",
          "name": "custId",
          "type": "string"
        },
        {
          "internalType": "uint256",
          "name": "roles",
          "type": "uint256"
        },
        {
          "internalType": "uint256",
          "name": "amount",
          "type": "uint256"
        },
        {
          "internalType": "bytes32",
          "name": "hash",
          "type": "bytes32"
        },
        {
          "internalType": "bytes",
          "name": "signature",
          "type": "bytes"
        }
      ],
      "name": "depositTokenFund",
      "outputs": [],
      "stateMutability": "nonpayable",
      "type": "function"
    },
    {
      "inputs": [
        {
          "internalType": "address",
          "name": "tokenAddress",
          "type": "address"
        },
        {
          "internalType": "address",
          "name": "recipient",
          "type": "address"
        }
      ],
      "name": "getTokenBalance",
      "outputs": [
        {
          "internalType": "uint256",
          "name": "",
          "type": "uint256"
        }
      ],
      "stateMutability": "view",
      "type": "function"
    },
    {
      "inputs": [],
      "name": "owner",
      "outputs": [
        {
          "internalType": "address",
          "name": "",
          "type": "address"
        }
      ],
      "stateMutability": "view",
      "type": "function"
    },
    {
      "inputs": [],
      "name": "renounceOwnership",
      "outputs": [],
      "stateMutability": "nonpayable",
      "type": "function"
    },
    {
      "inputs": [
        {
          "internalType": "address",
          "name": "newOwner",
          "type": "address"
        }
      ],
      "name": "transferOwnership",
      "outputs": [],
      "stateMutability": "nonpayable",
      "type": "function"
    }
  ],
  "bytecode": "0x6080604052600a600255601460035534801561001a57600080fd5b5061003761002c61004360201b60201c565b61004b60201b60201c565b6001808190555061010f565b600033905090565b60008060009054906101000a900473ffffffffffffffffffffffffffffffffffffffff169050816000806101000a81548173ffffffffffffffffffffffffffffffffffffffff021916908373ffffffffffffffffffffffffffffffffffffffff1602179055508173ffffffffffffffffffffffffffffffffffffffff168173ffffffffffffffffffffffffffffffffffffffff167f8be0079c531659141344cd1fd0a4f28419497f9722a3daafe3b4186f6b6457e060405160405180910390a35050565b612418806200011f6000396000f3fe6080604052600436106100555760003560e01c8063715018a61461005a57806385505f9b146100715780638da5cb5b1461008d578063975b2cde146100b8578063c489744b146100e1578063f2fde38b1461011e575b600080fd5b34801561006657600080fd5b5061006f610147565b005b61008b600480360381019061008691906115ae565b61015b565b005b34801561009957600080fd5b506100a261045d565b6040516100af9190611a1e565b60405180910390f35b3480156100c457600080fd5b506100df60048036038101906100da91906114bc565b610486565b005b3480156100ed57600080fd5b506101086004803603810190610103919061147c565b61089d565b6040516101159190611d60565b60405180910390f35b34801561012a57600080fd5b506101456004803603810190610140919061144f565b610a15565b005b61014f610a99565b6101596000610b17565b565b610163610bdb565b600a8314806101725750601483145b6101b1576040517f08c379a00000000000000000000000000000000000000000000000000000000081526004016101a890611bc0565b60405180910390fd5b60003414156101f5576040517f08c379a00000000000000000000000000000000000000000000000000000000081526004016101ec90611cc0565b60405180910390fd5b6000845111610239576040517f08c379a000000000000000000000000000000000000000000000000000000000815260040161023090611c00565b60405180910390fd5b61024161045d565b73ffffffffffffffffffffffffffffffffffffffff166102618383610c2b565b73ffffffffffffffffffffffffffffffffffffffff16146102b7576040517f08c379a00000000000000000000000000000000000000000000000000000000081526004016102ae90611be0565b60405180910390fd5b6005816040516102c791906119ca565b908152602001604051809103902060009054906101000a900460ff1615610323576040517f08c379a000000000000000000000000000000000000000000000000000000000815260040161031a90611d00565b60405180910390fd5b60008060009054906101000a900473ffffffffffffffffffffffffffffffffffffffff16905060405180602001604052808681525060048660405161036891906119e1565b90815260200160405180910390206000820151816000019080519060200190610392929190611263565b50905050347f8062a128e9e0dd636284e6105d2de7173e2ac59a098f5be5c3a9cf2c9142e79633836040516103c8929190611a62565b60405180910390a28073ffffffffffffffffffffffffffffffffffffffff166108fc349081150290604051600060405180830381858888f19350505050158015610416573d6000803e3d6000fd5b50600160058360405161042991906119ca565b908152602001604051809103902060006101000a81548160ff02191690831515021790555050610457610c6a565b50505050565b60008060009054906101000a900473ffffffffffffffffffffffffffffffffffffffff16905090565b600a8414806104955750601484145b6104d4576040517f08c379a00000000000000000000000000000000000000000000000000000000081526004016104cb90611bc0565b60405180910390fd5b6000831415610518576040517f08c379a000000000000000000000000000000000000000000000000000000000815260040161050f90611cc0565b60405180910390fd5b600073ffffffffffffffffffffffffffffffffffffffff168673ffffffffffffffffffffffffffffffffffffffff161415610588576040517f08c379a000000000000000000000000000000000000000000000000000000000815260040161057f90611c60565b60405180910390fd5b60008551116105cc576040517f08c379a00000000000000000000000000000000000000000000000000000000081526004016105c390611c00565b60405180910390fd5b6105d461045d565b73ffffffffffffffffffffffffffffffffffffffff166105f48383610c2b565b73ffffffffffffffffffffffffffffffffffffffff161461064a576040517f08c379a000000000000000000000000000000000000000000000000000000000815260040161064190611be0565b60405180910390fd5b60058160405161065a91906119ca565b908152602001604051809103902060009054906101000a900460ff16156106b6576040517f08c379a00000000000000000000000000000000000000000000000000000000081526004016106ad90611d00565b60405180910390fd5b6000869050838173ffffffffffffffffffffffffffffffffffffffff1663dd62ed3e33306040518363ffffffff1660e01b81526004016106f7929190611a39565b60206040518083038186803b15801561070f57600080fd5b505afa158015610723573d6000803e3d6000fd5b505050506040513d601f19601f82011682018060405250810190610747919061164d565b1015610788576040517f08c379a000000000000000000000000000000000000000000000000000000000815260040161077f90611c80565b60405180910390fd5b6040518060200160405280878152506004876040516107a791906119e1565b908152602001604051809103902060008201518160000190805190602001906107d1929190611263565b5090505060016005836040516107e791906119ca565b908152602001604051809103902060006101000a81548160ff021916908315150217905550837fa7814aaf178d6c8e61b2703f3dc1b8328dd6c99cbb405bf8f1bb0cb1bbb051a5883360008054906101000a900473ffffffffffffffffffffffffffffffffffffffff1660405161086093929190611a8b565b60405180910390a2610894813360008054906101000a900473ffffffffffffffffffffffffffffffffffffffff1687610c73565b50505050505050565b60008073ffffffffffffffffffffffffffffffffffffffff168373ffffffffffffffffffffffffffffffffffffffff16141561090e576040517f08c379a000000000000000000000000000000000000000000000000000000000815260040161090590611c60565b60405180910390fd5b600073ffffffffffffffffffffffffffffffffffffffff168273ffffffffffffffffffffffffffffffffffffffff16141561097e576040517f08c379a000000000000000000000000000000000000000000000000000000000815260040161097590611c60565b60405180910390fd5b60008390508073ffffffffffffffffffffffffffffffffffffffff166370a08231846040518263ffffffff1660e01b81526004016109bc9190611a1e565b60206040518083038186803b1580156109d457600080fd5b505afa1580156109e8573d6000803e3d6000fd5b505050506040513d601f19601f82011682018060405250810190610a0c919061164d565b91505092915050565b610a1d610a99565b600073ffffffffffffffffffffffffffffffffffffffff168173ffffffffffffffffffffffffffffffffffffffff161415610a8d576040517f08c379a0000000000000000000000000000000000000000000000000000000008152600401610a8490611ba0565b60405180910390fd5b610a9681610b17565b50565b610aa1610cfc565b73ffffffffffffffffffffffffffffffffffffffff16610abf61045d565b73ffffffffffffffffffffffffffffffffffffffff1614610b15576040517f08c379a0000000000000000000000000000000000000000000000000000000008152600401610b0c90611ca0565b60405180910390fd5b565b60008060009054906101000a900473ffffffffffffffffffffffffffffffffffffffff169050816000806101000a81548173ffffffffffffffffffffffffffffffffffffffff021916908373ffffffffffffffffffffffffffffffffffffffff1602179055508173ffffffffffffffffffffffffffffffffffffffff168173ffffffffffffffffffffffffffffffffffffffff167f8be0079c531659141344cd1fd0a4f28419497f9722a3daafe3b4186f6b6457e060405160405180910390a35050565b60026001541415610c21576040517f08c379a0000000000000000000000000000000000000000000000000000000008152600401610c1890611d40565b60405180910390fd5b6002600181905550565b60008083604051602001610c3f91906119f8565b604051602081830303815290604052805190602001209050610c618184610d04565b91505092915050565b60018081905550565b610cf6846323b872dd60e01b858585604051602401610c9493929190611ac2565b604051602081830303815290604052907bffffffffffffffffffffffffffffffffffffffffffffffffffffffff19166020820180517bffffffffffffffffffffffffffffffffffffffffffffffffffffffff8381831617835250505050610d2b565b50505050565b600033905090565b6000806000610d138585610df2565b91509150610d2081610e44565b819250505092915050565b6000610d8d826040518060400160405280602081526020017f5361666545524332303a206c6f772d6c6576656c2063616c6c206661696c65648152508573ffffffffffffffffffffffffffffffffffffffff16610fb29092919063ffffffff16565b9050600081511115610ded5780806020019051810190610dad9190611581565b610dec576040517f08c379a0000000000000000000000000000000000000000000000000000000008152600401610de390611d20565b60405180910390fd5b5b505050565b600080604183511415610e345760008060006020860151925060408601519150606086015160001a9050610e2887828585610fca565b94509450505050610e3d565b60006002915091505b9250929050565b60006004811115610e5857610e57611f83565b5b816004811115610e6b57610e6a611f83565b5b1415610e7657610faf565b60016004811115610e8a57610e89611f83565b5b816004811115610e9d57610e9c611f83565b5b1415610ede576040517f08c379a0000000000000000000000000000000000000000000000000000000008152600401610ed590611b60565b60405180910390fd5b60026004811115610ef257610ef1611f83565b5b816004811115610f0557610f04611f83565b5b1415610f46576040517f08c379a0000000000000000000000000000000000000000000000000000000008152600401610f3d90611b80565b60405180910390fd5b60036004811115610f5a57610f59611f83565b5b816004811115610f6d57610f6c611f83565b5b1415610fae576040517f08c379a0000000000000000000000000000000000000000000000000000000008152600401610fa590611c20565b60405180910390fd5b5b50565b6060610fc184846000856110ad565b90509392505050565b6000807f7fffffffffffffffffffffffffffffff5d576e7357a4501ddfe92f46681b20a08360001c11156110055760006003915091506110a4565b60006001878787876040516000815260200160405260405161102a9493929190611af9565b6020604051602081039080840390855afa15801561104c573d6000803e3d6000fd5b505050602060405103519050600073ffffffffffffffffffffffffffffffffffffffff168173ffffffffffffffffffffffffffffffffffffffff16141561109b576000600192509250506110a4565b80600092509250505b94509492505050565b6060824710156110f2576040517f08c379a00000000000000000000000000000000000000000000000000000000081526004016110e990611c40565b60405180910390fd5b6000808673ffffffffffffffffffffffffffffffffffffffff16858760405161111b91906119ca565b60006040518083038185875af1925050503d8060008114611158576040519150601f19603f3d011682016040523d82523d6000602084013e61115d565b606091505b509150915061116e8783838761117a565b92505050949350505050565b606083156111dd576000835114156111d557611195856111f0565b6111d4576040517f08c379a00000000000000000000000000000000000000000000000000000000081526004016111cb90611ce0565b60405180910390fd5b5b8290506111e8565b6111e78383611213565b5b949350505050565b6000808273ffffffffffffffffffffffffffffffffffffffff163b119050919050565b6000825111156112265781518083602001fd5b806040517f08c379a000000000000000000000000000000000000000000000000000000000815260040161125a9190611b3e565b60405180910390fd5b82805461126f90611f16565b90600052602060002090601f01602090048101928261129157600085556112d8565b82601f106112aa57805160ff19168380011785556112d8565b828001600101855582156112d8579182015b828111156112d75782518255916020019190600101906112bc565b5b5090506112e591906112e9565b5090565b5b808211156113025760008160009055506001016112ea565b5090565b600061131961131484611da0565b611d7b565b90508281526020810184848401111561133557611334612015565b5b611340848285611ed4565b509392505050565b600061135b61135684611dd1565b611d7b565b90508281526020810184848401111561137757611376612015565b5b611382848285611ed4565b509392505050565b60008135905061139981612386565b92915050565b6000815190506113ae8161239d565b92915050565b6000813590506113c3816123b4565b92915050565b600082601f8301126113de576113dd612010565b5b81356113ee848260208601611306565b91505092915050565b600082601f83011261140c5761140b612010565b5b813561141c848260208601611348565b91505092915050565b600081359050611434816123cb565b92915050565b600081519050611449816123cb565b92915050565b6000602082840312156114655761146461201f565b5b60006114738482850161138a565b91505092915050565b600080604083850312156114935761149261201f565b5b60006114a18582860161138a565b92505060206114b28582860161138a565b9150509250929050565b60008060008060008060c087890312156114d9576114d861201f565b5b60006114e789828a0161138a565b965050602087013567ffffffffffffffff8111156115085761150761201a565b5b61151489828a016113f7565b955050604061152589828a01611425565b945050606061153689828a01611425565b935050608061154789828a016113b4565b92505060a087013567ffffffffffffffff8111156115685761156761201a565b5b61157489828a016113c9565b9150509295509295509295565b6000602082840312156115975761159661201f565b5b60006115a58482850161139f565b91505092915050565b600080600080608085870312156115c8576115c761201f565b5b600085013567ffffffffffffffff8111156115e6576115e561201a565b5b6115f2878288016113f7565b945050602061160387828801611425565b9350506040611614878288016113b4565b925050606085013567ffffffffffffffff8111156116355761163461201a565b5b611641878288016113c9565b91505092959194509250565b6000602082840312156116635761166261201f565b5b60006116718482850161143a565b91505092915050565b61168381611e9e565b82525050565b61169281611e3f565b82525050565b6116a181611e5d565b82525050565b6116b86116b382611e5d565b611f79565b82525050565b60006116c982611e02565b6116d38185611e18565b93506116e3818560208601611ee3565b80840191505092915050565b60006116fa82611e0d565b6117048185611e23565b9350611714818560208601611ee3565b61171d81612024565b840191505092915050565b600061173382611e0d565b61173d8185611e34565b935061174d818560208601611ee3565b80840191505092915050565b6000611766601883611e23565b915061177182612035565b602082019050919050565b6000611789601f83611e23565b91506117948261205e565b602082019050919050565b60006117ac601c83611e34565b91506117b782612087565b601c82019050919050565b60006117cf602683611e23565b91506117da826120b0565b604082019050919050565b60006117f2600d83611e23565b91506117fd826120ff565b602082019050919050565b6000611815601983611e23565b915061182082612128565b602082019050919050565b6000611838600e83611e23565b915061184382612151565b602082019050919050565b600061185b602283611e23565b91506118668261217a565b604082019050919050565b600061187e602683611e23565b9150611889826121c9565b604082019050919050565b60006118a1601683611e23565b91506118ac82612218565b602082019050919050565b60006118c4601983611e23565b91506118cf82612241565b602082019050919050565b60006118e7602083611e23565b91506118f28261226a565b602082019050919050565b600061190a601383611e23565b915061191582612293565b602082019050919050565b600061192d601d83611e23565b9150611938826122bc565b602082019050919050565b6000611950601683611e23565b915061195b826122e5565b602082019050919050565b6000611973602a83611e23565b915061197e8261230e565b604082019050919050565b6000611996601f83611e23565b91506119a18261235d565b602082019050919050565b6119b581611e87565b82525050565b6119c481611e91565b82525050565b60006119d682846116be565b915081905092915050565b60006119ed8284611728565b915081905092915050565b6000611a038261179f565b9150611a0f82846116a7565b60208201915081905092915050565b6000602082019050611a336000830184611689565b92915050565b6000604082019050611a4e6000830185611689565b611a5b6020830184611689565b9392505050565b6000604082019050611a776000830185611689565b611a84602083018461167a565b9392505050565b6000606082019050611aa06000830186611689565b611aad6020830185611689565b611aba6040830184611689565b949350505050565b6000606082019050611ad76000830186611689565b611ae46020830185611689565b611af160408301846119ac565b949350505050565b6000608082019050611b0e6000830187611698565b611b1b60208301866119bb565b611b286040830185611698565b611b356060830184611698565b95945050505050565b60006020820190508181036000830152611b5881846116ef565b905092915050565b60006020820190508181036000830152611b7981611759565b9050919050565b60006020820190508181036000830152611b998161177c565b9050919050565b60006020820190508181036000830152611bb9816117c2565b9050919050565b60006020820190508181036000830152611bd9816117e5565b9050919050565b60006020820190508181036000830152611bf981611808565b9050919050565b60006020820190508181036000830152611c198161182b565b9050919050565b60006020820190508181036000830152611c398161184e565b9050919050565b60006020820190508181036000830152611c5981611871565b9050919050565b60006020820190508181036000830152611c7981611894565b9050919050565b60006020820190508181036000830152611c99816118b7565b9050919050565b60006020820190508181036000830152611cb9816118da565b9050919050565b60006020820190508181036000830152611cd9816118fd565b9050919050565b60006020820190508181036000830152611cf981611920565b9050919050565b60006020820190508181036000830152611d1981611943565b9050919050565b60006020820190508181036000830152611d3981611966565b9050919050565b60006020820190508181036000830152611d5981611989565b9050919050565b6000602082019050611d7560008301846119ac565b92915050565b6000611d85611d96565b9050611d918282611f48565b919050565b6000604051905090565b600067ffffffffffffffff821115611dbb57611dba611fe1565b5b611dc482612024565b9050602081019050919050565b600067ffffffffffffffff821115611dec57611deb611fe1565b5b611df582612024565b9050602081019050919050565b600081519050919050565b600081519050919050565b600081905092915050565b600082825260208201905092915050565b600081905092915050565b6000611e4a82611e67565b9050919050565b60008115159050919050565b6000819050919050565b600073ffffffffffffffffffffffffffffffffffffffff82169050919050565b6000819050919050565b600060ff82169050919050565b6000611ea982611eb0565b9050919050565b6000611ebb82611ec2565b9050919050565b6000611ecd82611e67565b9050919050565b82818337600083830152505050565b60005b83811015611f01578082015181840152602081019050611ee6565b83811115611f10576000848401525b50505050565b60006002820490506001821680611f2e57607f821691505b60208210811415611f4257611f41611fb2565b5b50919050565b611f5182612024565b810181811067ffffffffffffffff82111715611f7057611f6f611fe1565b5b80604052505050565b6000819050919050565b7f4e487b7100000000000000000000000000000000000000000000000000000000600052602160045260246000fd5b7f4e487b7100000000000000000000000000000000000000000000000000000000600052602260045260246000fd5b7f4e487b7100000000000000000000000000000000000000000000000000000000600052604160045260246000fd5b600080fd5b600080fd5b600080fd5b600080fd5b6000601f19601f8301169050919050565b7f45434453413a20696e76616c6964207369676e61747572650000000000000000600082015250565b7f45434453413a20696e76616c6964207369676e6174757265206c656e67746800600082015250565b7f19457468657265756d205369676e6564204d6573736167653a0a333200000000600082015250565b7f4f776e61626c653a206e6577206f776e657220697320746865207a65726f206160008201527f6464726573730000000000000000000000000000000000000000000000000000602082015250565b7f496e76616c696420726f6c657300000000000000000000000000000000000000600082015250565b7f41646472657373206973206e6f7420617574686f72697a656400000000000000600082015250565b7f496e76616c696420637573744964000000000000000000000000000000000000600082015250565b7f45434453413a20696e76616c6964207369676e6174757265202773272076616c60008201527f7565000000000000000000000000000000000000000000000000000000000000602082015250565b7f416464726573733a20696e73756666696369656e742062616c616e636520666f60008201527f722063616c6c0000000000000000000000000000000000000000000000000000602082015250565b7f416464726573732063616e6e6f74206265207a65726f00000000000000000000600082015250565b7f436865636b2074686520746f6b656e20616c6c6f77616e636500000000000000600082015250565b7f4f776e61626c653a2063616c6c6572206973206e6f7420746865206f776e6572600082015250565b7f496e73756666696369656e7420616d6f756e7400000000000000000000000000600082015250565b7f416464726573733a2063616c6c20746f206e6f6e2d636f6e7472616374000000600082015250565b7f416c7265616479207369676e6174757265207573656400000000000000000000600082015250565b7f5361666545524332303a204552433230206f7065726174696f6e20646964206e60008201527f6f74207375636365656400000000000000000000000000000000000000000000602082015250565b7f5265656e7472616e637947756172643a207265656e7472616e742063616c6c00600082015250565b61238f81611e3f565b811461239a57600080fd5b50565b6123a681611e51565b81146123b157600080fd5b50565b6123bd81611e5d565b81146123c857600080fd5b50565b6123d481611e87565b81146123df57600080fd5b5056fea2646970667358221220900e560d87bcac12064ea4934dd41cbc33a2c73ebfc6fe4a0a461e15ad0c0e6164736f6c63430008070033",
  "linkReferences": {},
  "deployedLinkReferences": {}
}